:020000040800F2
:10000000C009002001010008090100080B010008D7
:100010000D0100080F010008110100080000000098
:1000200000000000000000000000000013010008B4
:10003000150100080000000017010008A51F0008B6
:100040001B0100081B0100081B0100081B01000820
:100050001B0100081B0100081B0100081B01000810
:100060001B0100081B0100081B0100081B01000800
:10007000411800081B0100081B0100081B010008B3
:100080001B0100081B0100081B0100081B010008E0
:100090001B0100081B0100081B0100081B010008D0
:1000A0001B0100081B0100081B0100081B010008C0
:1000B0001B0100081B0100081B0100081B010008B0
:1000C0001B0100081B0100081B0100081B010008A0
:1000D0001B010008292000081B010008312000082E
:1000E0001B0100081B0100081B010008DFF80CD0F1
:1000F00000F0FEF80048004761230008C009002016
:100100000648804706480047FEE7FEE7FEE7FEE7B1
:10011000FEE7FEE7FEE7FEE7FEE7FEE7C91F000891
:10012000ED00000840EA01039B0703D009E008C97D
:10013000121F08C0042AFAD203E011F8013B00F8AC
:10014000013B521EF9D2704780EA010210B502F05D
:100150000043400022D04A001FD0010E01EB126183
:10016000C0F35600C2F3560240F4000042F400020D
:10017000A0FB022000047F39140400D0401C50EA88
:10018000124001D44000491EC2B20C0604EBD0104C
:10019000401C4008802A02D003E0002010BD20F05F
:1001A0000100002900DA0020184310BD30B480EAB5
:1001B000010202F0004530F0004221F0004013D06F
:1001C00090B1C30DD40DC2F31601C0F31600E41AAA
:1001D00041F4000140F400027D34914201D3641CDB
:1001E00000E04900002C02DA30BC002070474FF4D8
:1001F00000000023914201D3891A034340084FEACB
:100200004101F7D151B1914202D14FF0004105E0D7
:1002100002D24FF0010101E06FF0010103EBC45085
:10022000284430BC00F02CB8C10F80EAE0700844CC
:10023000CA079623002100F02CB800F0004220F0FD
:100240000040C10DC0F3160040F400007F2901DA20
:1002500000207047962903DCC1F19601C84001E0F7
:1002600096398840002AF4D040427047002801DBCC
:10027000C0F10040002901DBC1F10041814270471B
:100280000029A8BF7047401C490008BF20F00100AA
:10029000704710B4B0FA80FC00FA0CF050EA010488
:1002A00004BF10BC704749B1CCF1200421FA04F41A
:1002B00011FA0CF118BF012121430843A3EB0C01F3
:1002C000CB1D4FEA00614FEA102042BF002010BC56
:1002D000704700EBC35010440029A4BF10BC704706
:1002E000401C490008BF20F0010010BC704700000E
:1002F000064C074D06E0E06840F0010394E8070073
:1003000098471034AC42F6D3FFF7F4FE24250008DA
:10031000442500081CB53E4800883E49098890FBEA
:10032000F1F201FB12013B480088401E814202D1DC
:10033000012039490871364800883849098890FBFE
:10034000F1F201FB120135480088401E814202D1C2
:100350000120314948712E4800883149098890FBB5
:10036000F1F201FB12012E480088801E814202D169
:10037000012029490874264800882A49098890FBE9
:10038000F1F201FB120127480088401E814202D190
:1003900001202149C8701E480088401C80B21C49B9
:1003A0000880B0F57A7F01DD002008801A480078C7
:1003B00010B10020184908701748C07868B10020B3
:1003C0001549C8700090012301901748026817482A
:1003D00001681748006800F071F90F48407C10B1BF
:1003E00000200D4948740C48007C20B100200A49C7
:1003F000087400F005FA0848007910B10020064999
:1004000008710548407910B10020034948711CBDAE
:1004100010000020120000205801002014000020CD
:1004200016000020180000202800002024000020D2
:100430002000002070B504460D460026002004E090
:10044000215C3144CEB2411CC8B2691E8142F7DC46
:10045000601910F8010CB04200D070BD2078AA28B5
:1004600002D16078AF2800D0F7E7A078012835D115
:100470002079012802D13C4908702FE02079022818
:1004800003D101203849487028E02079032804D19D
:10049000012035490870487020E02079042803D1F4
:1004A00001203249087019E02079312812D100F07A
:1004B0000FFC00F01DFB642001F0E6FA2C4800F070
:1004C00061FC2B4800F05CFB01202A49487101F0D7
:1004D00033FC03E02079A02800D000BFA0780228D8
:1004E00010D12079012806D123498871C87108727A
:1004F00048728872C8722079A02802D101201E4952
:10050000887000BFA078032802D1022019494870E2
:10051000A078102803D1A078314600F0A3F8A07885
:10052000112803D1A078314600F09CF8A078122859
:1005300003D1A078314600F095F8A078132803D1B4
:10054000A078314600F08EF8A078142803D1A07866
:10055000314600F087F8A078152803D1A0783146FD
:1005600000F080F800BF78E75003002078000020FA
:1005700000CA0800000000205801002010B5044601
:100580003448007838B9AA2C05D1012031490870C7
:10059000314804705DE02F480078012807D1AF2C66
:1005A00005D102202B4908702B48447051E029489E
:1005B0000078022807D1F12C05DA032025490870BC
:1005C0002548847045E02348007803280CD1322C5C
:1005D0000ADA04201F4908701F48C4701F480470BD
:1005E00000201F49087034E01A480078042819D107
:1005F0001A480078002815DD18480078401E174971
:1006000008701748007816490978491C144A117077
:10061000001D11490C5411480078D0B905200D492E
:10062000087016E00B48007805280FD10020094912
:1006300008700B480078001D07490C5408480078E2
:10064000401DC1B20448FFF7F5FE02E00020014959
:10065000087010BD1C0000209D0100201A00002021
:100660001B00002070B504460D46AA200D490870F5
:100670004870EF2088700220C870084604714571E8
:100680000026002005E00749095C3144CEB2411C38
:10069000C8B20628F7DB03488671072100F004F88A
:1006A00070BD00006B01002070B505460C46214668
:1006B000014800F0D1FB70BD6B0100202DE9FE4F19
:1006C00081460D4616461F46DDE90CAB0024019716
:1006D000AA222146641C484842542146641C4254C4
:1006E00001222146641C425400222146641C4254CB
:1006F00042494846FFF728FD0090FFF79EFD00B2F3
:1007000002909DF809202146641C3B4842549DF804
:1007100008202146641C425438492846FFF714FD3E
:100720000090FFF78AFD00B202909DF80920214653
:10073000641C314842549DF808202046611CCCB20C
:100740002D490A542D493046FFF7FEFC0090FFF773
:1007500074FD00B202909DF809202046611CCCB2C5
:1007600025490A549DF808202046611CCCB2224934
:100770000A549DF807202046611CCCB21E490A5439
:100780009DF806202046611CCCB21B490A549DF8F6
:1007900005202046611CCCB217490A549DF804205C
:1007A0002046611CCCB214490A542046611CCCB2CC
:1007B000114901F800A02046611CCCB20E4901F895
:1007C00000B0201FC8704FF00008002006E00A4962
:1007D000095C414401F0FF08411CC8B2A042F6DBAD
:1007E0002046611CCCB2044901F800802146024831
:1007F000FFF75AFFBDE8FE8F6B0100200000C842E2
:10080000F8B500240025AA222146641CAE484254B3
:100810002146641C4254F1222146641C42540022A9
:100820002146641C42540021A8480068FFF71EFDC1
:100830000BD2A6480168A648FFF786FC0746FFF7DB
:10084000FCFC00B2009001250AE0A0480168A14824
:10085000FFF77AFC0746FFF7F0FC00B20090002596
:100860009DF801202046611CCCB297490A549DF89E
:1008700000202046611CCCB293490A542046611CDA
:10088000CCB291490D54002193480068FFF7EEFC6B
:100890000BD2914801688E48FFF756FC0746FFF7D8
:1008A000CCFC00B2009001250AE08B480168894821
:1008B000FFF74AFC0746FFF7C0FC00B20090002596
:1008C0009DF801202146601CC4B27F4842549DF827
:1008D00000202046611CCCB27B490A542046611C92
:1008E000CCB279490D5400217C480068FFF7BEFC6A
:1008F0000BD27A4801687648FFF726FC0746FFF7D7
:100900009CFC00B2009001250AE07448016871481F
:10091000FFF71AFC0746FFF790FC00B20090002595
:100920009DF801202146601CC4B2674842549DF8DE
:1009300000202146601CC4B2634842542046611C1A
:10094000CCB261490D54002165480068FFF78EFC68
:100950000BD2634801685E48FFF7F6FB0746FFF7D6
:100960006CFC00B2009001250AE05D48016859481E
:10097000FFF7EAFB0746FFF760FC00B20090002596
:100980009DF801202146601CC4B24F4842549DF896
:1009900000202046611CCCB24B490A542046611C01
:1009A000CCB249490D5400214E480068FFF75EFC67
:1009B0000BD24C4801684648FFF7C6FB0746FFF7D5
:1009C0003CFC00B2009001250AE04648016841481D
:1009D000FFF7BAFB0746FFF730FC00B20090002596
:1009E0009DF801202046611CCCB237490A549DF87D
:1009F00000202046611CCCB233490A542046611CB9
:100A0000CCB231490D54002137480068FFF72EFC65
:100A10000BD2354801682E48FFF796FB0746FFF7D3
:100A20000CFC00B2009001250AE02F48016829481B
:100A3000FFF78AFB0746FFF700FC00B20090002595
:100A40009DF801202146601CC4B21F4842549DF805
:100A500000202146601CC4B21B4842542046611C41
:100A6000CCB219490D542148008800B200909DF87D
:100A700001202046611CCCB213490A549DF8002085
:100A80002146601CC4B21048425400222146601C1A
:100A9000C4B20D484254201F0B49C87000260020E4
:100AA00005E00949095C3144CEB2411CC8B2A042FC
:100AB000F7DB2046611CCCB203490E5421460248A4
:100AC000FFF7F2FDF8BD00006B01002020000020C0
:100AD0000000C8C20000C8422400002028000020F6
:100AE000980000209C000020A0000020B6000020FC
:100AF00008B5094801F0D6FA002240F2255106480F
:100B000001F055FB27208DF8000000208DF8030030
:100B1000684601F0CFF808BD0048004010B51648FF
:100B2000008800F0080020B11349091D0988C8B2E7
:100B300000BF40F22661104801F00FFB01280DD1E3
:100B400040F226610C4801F077FA002240F226615B
:100B5000094801F02CFB002008490870064800886D
:100B600000F0200038B10448001D0088C4B22046BF
:100B700000F062FB00BF10BD004800405E00002096
:100B800010B594B004460121880401F0EDF801216C
:100B9000082001F009F90121084601F0D5F848487C
:100BA00000F080FE474801904748029010200390D3
:100BB000802004900020059080200690002007905F
:100BC000089009904FF440500A9000200B9001A922
:100BD0003B4800F02CFF4FF48060ADF83400032058
:100BE0008DF8360018208DF837000DA9374800F031
:100BF00083FF4FF40060ADF8340003208DF8360019
:100C000004208DF837000DA9304800F075FF1094CE
:100C10000020ADF84400ADF84600ADF84800ADF84E
:100C20004C000C20ADF84A000020ADF83800ADF8BB
:100C30003A004FF40070ADF83C000020ADF83E00E3
:100C400010A92048001F01F0D7FA0EA91D48001F67
:100C500001F001FA012280211A48001F01F018FA60
:100C6000012240F225511748001F01F0A0FA01228D
:100C70000221134800F0D2FE01211248001F01F0AA
:100C8000FBF90C208DF8300002208DF83100002097
:100C90008DF8320001208DF833000CA801F00AF81D
:100CA00027208DF8300004208DF8310001208DF8C8
:100CB00032008DF833000CA800F0FCFF14B010BD1A
:100CC0001C00024004480040CF020020000C0140FC
:100CD00008B5094801F0E6F9002240F2255106481E
:100CE00001F065FA25208DF8000000208DF8030042
:100CF000684600F0DFFF08BD0038014010B508214C
:100D00001C4801F01DFA10B11A4801F0E1FA194827
:100D1000008800F08000F0B116480C30008800F028
:100D20008000C0B1144801780078401C124A10704D
:100D30001248405C0F49091D088010460078104990
:100D40000978884207D10B480C30008820F08000D9
:100D500008490C3108800748008800F0200038B1AD
:100D60000448001D0088C4B22046FFF707FC00BFFE
:100D700010BD0000003801405C000020CF010020C1
:100D80005D00002010B588B004460121880301F001
:100D90000BF80121084601F007F80121042001F0B9
:100DA00003F84FF40070ADF8040003208DF806003E
:100DB00018208DF8070001A9254800F09DFE4FF48A
:100DC0008060ADF8040003208DF8060004208DF843
:100DD000070001A91E4800F08FFE04940020ADF822
:100DE0001400ADF81600ADF81800ADF81C000C208A
:100DF000ADF81A000020ADF80800ADF80A004FF475
:100E00000070ADF80C000020ADF80E0004A91148E8
:100E100001F0F2F902A90F4801F01DF9012240F298
:100E200025510C4801F0C3F901210A4801F024F9C9
:100E300025208DF8000005208DF8010001208DF897
:100E400002008DF80300684600F034FF08B010BDC2
:100E5000000801400038014070B505460E460024E8
:100E60000AE0295D0C4802780078401C0A4B187093
:100E70000A488154601CC4B2B442F2DB08480088BE
:100E800000F0800030B9012240F2277104480C388C
:100E900001F08DF970BD00005D000020CF01002041
:100EA0000C38014010B5424800784249097890FB5F
:100EB000F1F201FB12013F480078401E814202D14D
:100EC00001203D4908713A4800783C49097890FB77
:100ED000F1F201FB120139480078401E814202D133
:100EE000012035490874324800783549097890FB6B
:100EF000F1F201FB120132480078401E814202D11A
:100F000001202D49C8702A4800782E49097890FBA5
:100F1000F1F201FB12012B480078401E814202D100
:100F200001202549487422480078401CC0B220495D
:100F30000870C82801DD002008701F48007910B132
:100F400000201D4908711C48007C10B100201A497E
:100F500008741948C07818B300201749C8701A4897
:100F6000007801280DD101221146022000F0EAF993
:100F700001221146042000F0E5F900201249087012
:100F800048701248007801280AD10121022000F09F
:100F9000B9FA0121042000F0B5FA00200B490870CD
:100FA0000548407C10B100200349487410BD000082
:100FB000AA000020AB0000203E050020AC0000206D
:100FC000AD000020AE00002050030020780000207B
:100FD00070B504460D462078FE2804D1601910F83B
:100FE000010CFF2800D070BD207980BB607970BBF8
:100FF000A079002808D0A079212806D1E179207AAB
:1010000001EB002080494880FBE0A079222806D12E
:10101000E179207A01EB00207B498880F1E0A0791A
:10102000232803D1E07978494870EAE0A0792428A0
:1010300003D1E07974490870E3E0A079F028E3D0A7
:10104000A079F828E0D0A079F928DDD0D9E0FFE731
:10105000207902287DD1607900287AD1E078812832
:1010600027D1A279E17902EB012108B2FFF7DCF880
:1010700006466649FFF79AF865490860227A617A60
:1010800002EB012108B2FFF7CFF806465F49FFF7F0
:101090008DF860490860A27AE17A02EB012108B27A
:1010A000FFF7C2F806465949FFF780F85A49086029
:1010B000A7E0E0788228A7D1A279E17902EB0120AC
:1010C000FFF7B2F855490861227A617A02EB0120F4
:1010D000FFF7AAF851494861A27AE17A02EB0120B0
:1010E000FFF7A2F84D498861227B617B02EB01206A
:1010F000FFF79AF84949C861A27BE17B02EB012026
:10110000FFF792F845490862227C617C02EB0120DE
:10111000FFF78AF841494862A27CE17C02EB01209A
:10112000FFF782F83D49C1F8A000227D617D02EB06
:101130000120FFF779F83949C1F8A400A27DE17DCB
:1011400002EB0120FFF770F83449C1F8A80058E01D
:10115000FFE7207903280FD1607968B9E07881280A
:1011600009D1A179E07901EB00202D490880207A8E
:101170002C49087045E044E0207904282DD160799D
:1011800058BBE078812827D1A279E17902EB0121CF
:1011900008B2FFF749F806461C49FFF707F822494D
:1011A0000860227A617A02EB012108B2FFF73CF86D
:1011B00006461649FEF7FAFF1C490860A27AE17A52
:1011C00002EB012108B2FFF72FF806460F49FEF7A0
:1011D000EDFF1749086014E013E02079062810D1CC
:1011E000607970B9E07881280AD1A279E17902EBBF
:1011F0000120FFF719F80F494860207A087400E0D1
:1012000000BF00BFEFE60000A40000200000C842BD
:10121000200000202400002028000020500300208F
:10122000B6000020B8000020980000209C0000209C
:10123000A00000209405002010B504463C4800782A
:1012400038B9FE2C05D1012039490870394804709D
:101250006DE03748007801280CD1402C0ADA0220D2
:1012600033490870334844703348047000203349D0
:1012700008705CE02E48007802283BD12E480078A8
:10128000002837DD2C480078401E2B490870FE2CC2
:1012900007D108460078401C0870012028490870D2
:1012A00017E027480078012813D1FD2C06D12348E8
:1012B0000078401E21490870FF2407E0FC2C05D16E
:1012C0001E480078401E1D490870FE2400201C495D
:1012D00008701A48007819490978491C174A117092
:1012E000801C14490C541448007800BB032010499A
:1012F00008701CE00E480078032815D1FF2C03D19C
:1013000000200B49087002E00020094908700B48D2
:101310000078801C07490C5408480078C01CC1B2F2
:101320000448FFF755FE02E000200149087010BD97
:10133000B100002051050020AF000020B0000020C7
:10134000B2000020F7B582B00E46174600240025F3
:10135000FE222146641C6A48425400222146641C35
:10136000425480222146641C425481222146641C3E
:1013700042549DF80800FF280ED1FE222046611C31
:10138000CCB25F490A54FD222046611CCCB25C49B4
:101390000A54681CC5B219E09DF80800FE280ED159
:1013A000FE222046611CCCB255490A54FC2220463C
:1013B000611CCCB252490A54681CC5B206E09DF8C3
:1013C00008202046611CCCB24D490A549DF8090002
:1013D000FF280ED1FE222046611CCCB248490A5497
:1013E000FD222046611CCCB245490A54681CC5B296
:1013F00019E09DF80900FE280ED1FE222046611C4E
:10140000CCB23F490A54FC222046611CCCB23C4974
:101410000A54681CC5B206E09DF809202046611CEC
:10142000CCB237490A5401969DF80400FF280ED12A
:10143000FE222046611CCCB231490A54FD222046CE
:10144000611CCCB22E490A54681CC5B219E09DF843
:101450000400FE280ED1FE222046611CCCB2284991
:101460000A54FC222046611CCCB225490A54681C4F
:10147000C5B206E09DF804202046611CCCB220498C
:101480000A5401979DF80400FF280ED1FE22204641
:10149000611CCCB21A490A54FD222046611CCCB210
:1014A00017490A54681CC5B219E09DF80400FE28CB
:1014B0000ED1FE222046611CCCB211490A54FC22F6
:1014C0002046611CCCB20E490A54681CC5B206E025
:1014D0009DF804202046611CCCB209490A54412CD5
:1014E00000DD4124FF222046611CCCB204490A548D
:1014F000E01E401B4870204600F0FEF805B0F0BD2D
:101500000C05002073B582B00E4600240025FE2293
:101510002146641C5248425400222146641C425415
:1015200080222146641C425482222146641C42547B
:101530009DF80800FF280ED1FE222046611CCCB287
:1015400047490A54FD222046611CCCB244490A5442
:10155000681CC5B219E09DF80800FE280ED1FE22D5
:101560002046611CCCB23E490A54FC222046611C34
:10157000CCB23B490A54681CC5B206E09DF808206D
:101580002046611CCCB236490A549DF80900FF2858
:101590000ED1FE222046611CCCB231490A54FD22F4
:1015A0002046611CCCB22E490A54681CC5B219E011
:1015B0009DF80900FE280ED1FE222046611CCCB207
:1015C00027490A54FC222046611CCCB224490A5403
:1015D000681CC5B206E09DF809202046611CCCB20B
:1015E0001F490A5401969DF80400FF280ED1FE22DF
:1015F0002046611CCCB21A490A54FD222046611CC7
:10160000CCB217490A54681CC5B219E09DF8040011
:10161000FE280ED1FE222046611CCCB210490A548D
:10162000FC222046611CCCB20D490A54681CC5B28C
:1016300006E09DF804202046611CCCB208490A54FB
:10164000412C00DD4124FF222046611CCCB204491C
:101650000A54E01E401B4870204600F04DF87FBD44
:101660000C0500207FB5064615460024FE222146C3
:10167000641C2048425400222146641C42548022AB
:101680002146641C42542146641C46549DF80420A3
:101690002146641C42549DF805202146641C425496
:1016A0002146641C4554112D01D0122D0ED19DF8F8
:1016B0000C202046611CCCB20E490A549DF80D2026
:1016C0002046611CCCB20B490A5406E09DF80C2060
:1016D0002046611CCCB207490A54FF222046611CF7
:1016E000CCB204490A54E01E4870204600F004F8C9
:1016F0007FBD00000C05002010B5044621460248BD
:1017000000F0ECFD10BD00000C050020F7B505460B
:1017100016460024FE222146641C1348425400222F
:101720002146641C425480222146641C42542146B6
:10173000641C45549DF804202146641C42549DF8C5
:1017400005202146641C42542146641C4654FF2255
:101750002046611CCCB204490A54E01E4870204661
:10176000FFF7CAFFFEBD00000C05002010B50024E5
:10177000012200212120FFF7C9FF022200212120A0
:10178000FFF7C4FF032200212120FFF7BFFF04223F
:1017900000212120FFF7BAFF0A2000F068F927484E
:1017A00040780F2806D00F23132200212120FFF7B5
:1017B00059FF01242148808842F22101884206D045
:1017C0000B46122200212120FFF74CFF01241B4869
:1017D0004088012806D00123112200212120FFF793
:1017E00041FF0124154800780C2806D00C23142250
:1017F00000212120FFF736FF0124012C1CD11022EB
:1018000000212120FFF782FF4FF4FA6000F02FF94A
:10181000012200212120FFF779FF0222002121204F
:10182000FFF774FF032200212120FFF76FFF04223E
:1018300000212120FFF76AFF10BD0000A400002056
:1018400010B5202000F0D4F801280CD1202000F0A1
:101850000FF80021044800F019F8012240F2266137
:10186000024800F0A4FC10BD1C00024000480040EB
:1018700000F0805111B10349086001E0024948605D
:1018800070470000040402400000024021B10268D9
:1018900042F00102026004E002684FF6FE731A4053
:1018A0000260704701684FF6FE721140016000212E
:1018B000016041608160C1604B49884208D14A495A
:1018C0000839496841F00F01474A083A51608AE0F7
:1018D00045491431884208D143490839496841F0E3
:1018E000F001414A083A51607DE03F492831884281
:1018F00008D13D490839496841F470613A4A083ACB
:10190000516070E038493C31884208D13649083985
:10191000496841F47041344A083A516063E0324901
:101920005031884208D130490839496841F4702162
:101930002D4A083A516056E02B496431884208D15B
:1019400029490839496841F47001274A083A516029
:1019500049E025497831884208D123490839496846
:1019600041F07061204A083A51603CE01F498842CA
:1019700006D1011F096841F00F01021F116032E01A
:101980001A491431884208D11849091F096841F0E1
:10199000F001164A121F116025E0144928318842CF
:1019A00008D11249091F096841F470610F4A121FDA
:1019B000116018E00D493C31884208D10B49091FDC
:1019C000096841F47041094A121F11600BE0074990
:1019D0005031884207D10549091F096841F4702137
:1019E000024A121F116070470800024008040240BA
:1019F00001460020002201F0805313B1054B1A6804
:101A000001E0054B1A6802EA01030BB1012000E076
:101A10000020704700040240000002401AB1036831
:101A20000B43036002E003688B430360704710B50B
:101A30000022026847F6F0739A430C6A8B682343CE
:101A40000C6923434C6923438C692343CC692343AA
:101A50004C6A23438C6A23431A430260CB68436079
:101A60000B6883604B68C36010BD4160704711B55F
:101A7000002405E04FF47A7000F006F8601C84B290
:101A800000988442F6D318BD11B500F0C1F80446A1
:101A900000BF00F0BDF8001B00998842F9D318BDC3
:101AA0007047704710B500F0B3F807490860FEF7BB
:101AB00031FC00F0ADF80449486008464068096808
:101AC000401A0149886010BD3001002010B5FFF7B1
:101AD000E9F910BD10B500F09BF80649C86000F0A8
:101AE00097F80449086108460069C968401A014925
:101AF000486110BD300100202DE9F041024600256B
:101B00000026002000230024002791F803C00CF0D9
:101B10000F0591F803C00CF0100CBCF1000F03D0BE
:101B200091F802C04CEA050591F800C0BCF1000F25
:101B300031D0146800202BE04FF0010C0CFA00F3B8
:101B4000B1F800C00CEA03069E4220D183004FF09A
:101B50000F0C0CFA03F7BC4305FA03FC4CEA04042F
:101B600091F803C0BCF1280F06D14FF0010C0CFA1C
:101B700000FCC2F814C00AE091F803C0BCF1480FA1
:101B800005D14FF0010C0CFA00FCC2F810C0401C4B
:101B90000828D1D31460B1F800C0BCF1FF0F34DDC8
:101BA000546800202EE000F1080C4FF0010808FAFC
:101BB0000CF3B1F800C00CEA03069E4221D1830069
:101BC0004FF00F0C0CFA03F7BC4305FA03FC4CEA88
:101BD000040491F803C0BCF1280F05D100F1080CF2
:101BE00008FA0CF8C2F8148091F803C0BCF1480F51
:101BF00007D100F1080C4FF0010808FA0CF8C2F800
:101C00001080401C0828CED35460BDE8F08100004D
:101C100000BF0E4801684FF0E02082690B48006861
:101C20008142F6D10A48006800EB4003C3EBC010C4
:101C3000C2EBC000064B1B68B0FBF3F001EB4103A5
:101C4000C3EBC11300EBC300704700006400002029
:101C5000600000201648008A401C1549088208468A
:101C6000C088401C00B2C88008460089401C00B2F1
:101C7000088108464089401C00B248810846808996
:101C8000401C00B288810846C089401C00B2C8814F
:101C900008460078022804DB08464088401C48803B
:101CA00004E003480078401C0149087070470000B8
:101CB0001C01002070B5002100230F22C47804B35A
:101CC000154C246804F4E064C4F5E064210AC1F111
:101CD0000403CA40447804FA03F184781440214391
:101CE00009010E4C0678A155047804F01F05012463
:101CF000AC4005786D11AD0005F1E025C5F8004157
:101D000009E0047804F01F050124AC40044D067876
:101D1000761145F8264070BD0CED00E000E400E0CF
:101D200080E100E002490143024A1160704700006F
:101D30000000FA050CED00E04FF400500149486145
:101D4000704700000010014029B1064A5269024361
:101D5000044B5A6104E0034A52698243014B5A61C1
:101D6000704700000010024029B1064AD2690243C0
:101D7000044BDA6104E0034AD2698243014BDA6121
:101D8000704700000010024029B1064A1269024360
:101D9000044B1A6104E0034A12698243014B1A6141
:101DA000704700000010024029B1064A92690243C0
:101DB000044B9A6104E0034A92698243014B9A61A1
:101DC000704700000010024029B1064AD268024361
:101DD000044BDA6004E0034AD2688243014BDA60C4
:101DE000704700000010024030B50021002200249E
:101DF00000232D4D6D6805F00C0121B1042905D09B
:101E0000082923D105E0294D056022E0274D056012
:101E10001FE0254D6D6805F47012234D6D6805F4C3
:101E20008034022505EB92421CB9214D55430560D3
:101E30000BE01D4D6D6805F400351DB11C4D55437B
:101E4000056002E0194D5543056002E0174D05603D
:101E500000BF00BF144D6D6805F0F0010909154D74
:101E60006B5C0568DD4045600F4D6D6805F4E06111
:101E7000090A104D6B5C4568DD4085600A4D6D6850
:101E800005F46051C90A0B4D6B5C4568DD40C560C7
:101E9000054D6D6805F44041890B074D6B5CC568C5
:101EA000B5FBF3F5056130BD0010024000127A0069
:101EB00000093D00080100201801002010B500F0C5
:101EC00001F810BD0CB50020019000903348006867
:101ED00040F480303149086000BF3048006800F4A9
:101EE000003000900198401C0190009818B90198AA
:101EF000B0F5A06FF1D12948006800F4003010B1AE
:101F00000120009001E0002000900098012843D1BA
:101F10002348006840F01000214908600846006826
:101F200020F0030008600846006840F002000860E6
:101F30001A484068194948600846406848600846A1
:101F4000406840F4806048600846406820F47C1097
:101F500048600846406840F4E81048600846006859
:101F600040F08070086000BF0C48006800F000700E
:101F70000028F9D00948406820F00300074948606C
:101F80000846406840F00200486000BF03484068CF
:101F900000F00C000828F9D10CBD00000010024030
:101FA0000020024010B500F001F810BD10B5054842
:101FB0000068401C03490860FFF74CFE00F05CFA23
:101FC00010BD00006400002010B51348006840F008
:101FD00001001149086008464068104908400E4950
:101FE0004860084600680E4908400B4908600846EA
:101FF000006820F4802008600846406820F4FE0055
:1020000048604FF41F008860FFF758FF4FF00060F2
:102010000449086010BD0000001002400000FFF8F5
:10202000FFFFF6FE08ED00E010B5FEF767FE10BDFD
:1020300010B5FEF773FD10BD10B50022002340F669
:102040006A14A14200D100BF0A1201249440A3B235
:10205000DC43048010BD10B502460020108A4FF208
:10206000FF0318400B884C8823438C882343CC887B
:1020700023431843108210BD21B1828942F40052DB
:10208000828104E082894DF6FF731A408281704795
:102090001AB1838A0B43838202E0838A8B43838253
:1020A0007047000010B504462048844209D1012140
:1020B0008803FFF789FE00214FF48040FFF784FE7C
:1020C00032E01B48844209D101214804FFF75CFE3D
:1020D00000214FF40030FFF757FE25E015488442F9
:1020E00009D101218804FFF74FFE00214FF4802021
:1020F000FFF74AFE18E01048844209D10121C804C4
:10210000FFF742FE00214FF40020FFF73DFE0BE0F9
:102110000A48844208D101210805FFF735FE002155
:102120004FF48010FFF730FE10BD00000038014072
:102130000044004000480040004C00400050004077
:1021400002460020B1F5007F00D100BF13880B408C
:102150000BB1012000E00020704770B5024600245A
:1021600000230025002040F66A16B14200D100BFCE
:10217000C1F3421501F01F03012606FA03F3012DF6
:1021800002D19689334006E0022D02D1168A3340EF
:1021900001E0968A33400C12012606FA04F41688F0
:1021A000344013B10CB1012000E0002070BDF0B547
:1021B0000346002400260025002040F66A17B94295
:1021C00000D100BF1846C1F3421401F01F060127D9
:1021D00007FA06F5012C01D10C3004E0022C01D1E4
:1021E000103000E014301AB107682F43076002E096
:1021F0000768AF430760F0BD2DE9F04786B005469C
:102200000E460024A24600BFA1460027B08900B1B7
:1022100000BF2F462C8A4CF6FF700440F088044320
:102220002C82AC894EF6F3100440B0883189084303
:10223000718908430443AC81AC8A4FF6FF400440E7
:10224000B0890443AC8201A8FFF7CEFD1F48874246
:1022500002D1DDF810A001E0DDF80CA0A88900F49F
:10226000004040B10AEBCA0000EB0A103168490097
:10227000B0FBF1F807E00AEBCA0000EB0A10316886
:102280008900B0FBF1F86420B8FBF0F004012009EC
:10229000642101FB1089A88900F4004040B132207C
:1022A00000EBC900B0FBF1F000F00700044308E0C8
:1022B000322000EB09106421B0FBF1F000F00F00B8
:1022C00004432C8106B0BDE8F087000000380140CF
:1022D00001468888C0F308007047000070B50446C6
:1022E0000D4600BF0A4800780028FBD101200849AC
:1022F00008702A4621460748FDF714FF294606487C
:10230000FFF7B3FB01210448FFF7C0FA70BD0000DE
:102310005E000020CF0200201C00024002E008C83E
:10232000121F08C1002AFAD170477047002001E04F
:1023300001C1121F002AFBD17047000000B585B013
:102340006846FFF751FD04490098B0FBF1F00349DE
:10235000086005B000BD000040420F006000002092
:1023600000F042F801E000F001F8FCE710B51D486C
:102370000078012834DB1B48B0F90600022804DB92
:1023800000201849C880FFF78DFB1648B0F90800F7
:10239000062804DB002013490881FFF79BFB114846
:1023A000B0F90A000A2804DB00200E494881FFF733
:1023B00077FB0C48B0F90C00142804DB0020094915
:1023C0008881FFF76EFB0748B0F90E00322804DB66
:1023D00000200449C881FFF779FB002001490870FB
:1023E00010BD00001C01002070B54FF44070FFF7D5
:1023F00099FCFFF7A3FF1C4800684FF47A72B0FB0A
:10240000F2F1B1F1807F00D31DE021F07F40401E4A
:102410004FF0E022506150170F22002807DA13070F
:102420001D0E124B00F00F04241F1D5503E013076F
:102430001C0E0F4B1C5400BF00204FF0E022906197
:102440000720106100BF4FF4E130FEF79BFC094804
:10245000FEF796FB6420FFF70AFBC820FFF707FB97
:10246000FFF784F970BD0000F400002018ED00E0D3
:1024700000E400E020A107002548B0F9000040F288
:10248000E731884206DA22480088401C00B2204921
:1024900008803CE000201E4908801E48B0F900007A
:1024A0003B2813DA1B480088401C00B219490880F9
:1024B0001948008838BB1948008820BB08460088A6
:1024C000052824D101201649087020E00020114978
:1024D00008801248B0F900003B2806DA0F4800884F
:1024E000401C00B20D49088011E000200B49088013
:1024F0000948B0F90000172806DA07480088401C90
:1025000000B20549088002E00020034908807047B6
:102510006E0000206C000020680000206A0000208F
:102520005100002044250008000000201C0100008C
:102530001C230008602600081C010020A4080000DD
:102540002C23000800000000000000000000000034
:102550000000000000000A003200FA000F00000036
:10256000000000000000000000000000000000006B
:102570000000803F0000000000000000000000009C
:10258000000000000000000000000000000000004B
:10259000000000000000000000000000000000003B
:1025A000000000000000000000000000000000002B
:1025B000000000000000000000000000000000001B
:1025C0000000C8C20000C8C20000C8C20000C84263
:1025D0000000C8420000C8420000000000000000E7
:1025E00000000000000000000000000000000002E9
:1025F000022832000000000000000000000040003F
:102600000000001200E88000000E0A0040000000F8
:10261000001200400D03000E0A9919000000003C52
:1026200000E8800000120E004000000000200020A2
:102630004E00000E0A00000000A24A040000000044
:102640000000000001020304060708090000000062
:102650000102030401020304060708090204060834
:04000005080000ED02
:00000001FF
