:020000040800F2
:100000001810002001010008090100080B01000878
:100010000D0100080F010008110100080000000098
:1000200000000000000000000000000013010008B4
:10003000150100080000000017010008E13B00085E
:100040001B0100081B0100081B0100081B01000820
:100050001B0100081B0100081B0100081B01000810
:100060001B0100081B0100081B0100081B01000800
:100070001B0100081B0100081B0100081B010008F0
:100080001B0100081B0100081B0100081B010008E0
:100090001B0100081B0100081B0100081B010008D0
:1000A0001B0100081B0100081B0100081B010008C0
:1000B0001B0100081B0100081B0100081B010008B0
:1000C0001B0100081B0100081B0100081B010008A0
:1000D0001B010008653C00081B0100086D3C00087E
:1000E0001B0100081B0100081B010008DFF80CD0F1
:1000F00000F016FC00480047FD4B000818100020D7
:100100000648804706480047FEE7FEE7FEE7FEE7B1
:10011000FEE7FEE7FEE7FEE7FEE7FEE7053C000838
:10012000ED00000840EA01039B0703D009E008C97D
:10013000121F08C0042AFAD203E011F8013B00F8AC
:10014000013B521EF9D27047F0B480EA0102D40F8D
:100150004200B2EB410F02D20246084611464A0065
:1001600042D0C30DDDB2C1F3C752AD1A202D35DA2E
:10017000C1F3160141F4000204B15242C5F1200658
:1001800002FA06F12A411044B3EBD05F23D0C4B188
:10019000012DA0EBC35009DCF0BC4FF0004202EA95
:1001A000C352DBB200F5000000F0C6BA400000F117
:1001B000807000EBC350A0F1807040EAD17049001C
:1001C00009E0490841EAC071A0EBC35000F5000006
:1001D000400800EBC350F0BC00F0A5BA6142012218
:1001E00002EB4101001BF6E7F0BC704781F00041D3
:1001F000AAE780F00040A7E780EA010210B502F00C
:100200000043400022D04A001FD0010E01EB1261D2
:10021000C0F35600C2F3560240F4000042F400025C
:10022000A0FB022000047F39140400D0401C50EAD7
:10023000124001D44000491EC2B20C0604EBD0109B
:10024000401C4008802A02D003E0002010BD20F0AE
:100250000100002900DA0020184310BD30B480EA04
:10026000010202F0004530F0004221F0004013D0BE
:1002700090B1C30DD40DC2F31601C0F31600E41AF9
:1002800041F4000140F400027D34914201D3641C2A
:1002900000E04900002C02DA30BC002070474FF427
:1002A00000000023914201D3891A034340084FEA1A
:1002B0004101F7D151B1914202D14FF0004105E027
:1002C00002D24FF0010101E06FF0010103EBC450D5
:1002D000284430BC00F027BA2DE9FE4F804681EA61
:1002E0000300C00F0C46009021F0004123F00045B0
:1002F000B8EB0200A94105D24046214690461C4673
:100300000B46024623F00040104347D0270DC7F3A9
:100310000A00C3F30A510290401A019040286BDA98
:10032000C3F3130040F4801B0098924620B10023D1
:10033000D2EB030A63EB0B0B01985946C0F1400264
:10034000504600F0CFF906460D4650465946019AF0
:1003500000F0D7F910EB08006141002487EA115240
:1003600084EAE7731A4340D0009A62B3019A012AE3
:100370004FEA075215DC001B61EB02014FF000420F
:1003800002EA0752CDE90042001C41F580113246D5
:100390002B4600F00EFA03B0BDE8F08F4046214630
:1003A000F9E7001B61EB0201001C41F58013001806
:1003B0005B412018A2F5001747EB030140EAD57016
:1003C000B6196D4111E06D084FEA360645EAC07571
:1003D0004FEA0752001B61EB0201001C41F580113E
:1003E00049084FEA30000019514132462B4603B00C
:1003F000BDE8F04F00F0CEB9009801224000002384
:10040000D0EB020263EBE073009821464FEAE07400
:10041000B8EB000061EB0401E9E783F000435BE720
:1004200081F0004158E72DE9FE4F81EA030404F012
:10043000004421F0004100944FF0000B23F00043F2
:1004400050EA01045ED052EA03045BD0C3F30A54BD
:10045000C1F30A552C44A4F2F3340194A0FB0254D6
:10046000C1F3130141F48011C3F3130343F4801368
:1004700001FB024400FB034E840A970A44EA8154BC
:1004800047EA8357A4FB076802958D0A05FB078599
:100490004FEA932C04FB0C542705029D4FEA0658A3
:1004A00047EA1637B5EB08056EEB070C870E920E80
:1004B00047EA811742EA8312A7FB0201B6EB0B0160
:1004C00064EB00042B0D43EA0C335E1844EB1C5024
:1004D000DA465146E7FB0201C5F313044FEA0B333A
:1004E00043EA14534FEA0432019C43EA0603A4F1A1
:1004F0000C040294009CCDE900B400F05AF903B05A
:10050000BDE8F08F00200146F9E72DE9F04D81EAC2
:10051000030404F0004B21F0004514464FF0000A9C
:1005200023F0004150EA050220D054EA01021DD018
:10053000C5F30A570246C5F31303C1F31300C1F311
:100540000A5640F4801543F48013A7EB0608101BED
:10055000D64608F2FD3873EB050002D308F1010816
:1005600001E092185B41B8F1000F03DA0020014668
:10057000BDE8F08D00204FF48011064684460EE061
:10058000171B73EB050705D3121B63EB050306432B
:100590004CEA010C49084FEA300092185B4150EADE
:1005A0000107EDD152EA030012D082EA040083EA87
:1005B0000501084305D0101BAB4106D201220023E0
:1005C00006E000224FF0004302E06FF001025310FA
:1005D0001AEB06004CEB085110EB0A0041EB0B0143
:1005E000BDE8F04D00F0D6B8C10F80EAE0700844D5
:1005F000CA079623002100F09FB8962300221146D7
:1006000000F09AB800F0004220F00040C10DC0F3A5
:10061000160040F400007F2901DA00207047962977
:1006200003DCC1F19601C84001E096398840002AF8
:10063000F4D04042704720F00040C10DC0F31600D6
:1006400040F400007F2901DA00207047962903DC7E
:10065000C1F19601C840704796398840704700F054
:10066000004230F000400AD0C10D01F56071C0F3C6
:10067000160042EA0151C2084007114370470020AA
:100680000146704701F0004330B421F0004150EAC8
:10069000010206D00A0DA2F56072C1F31301002A0F
:1006A00002DC30BC00207047440F44EAC104C100A2
:1006B000E01830BC00EBC25000F035B8002801DB78
:1006C000C0F10040002901DBC1F1004181427047C7
:1006D000002801DBC0F10040002901DBC1F100412D
:1006E00088427047202A04DB203A00FA02F10020F9
:1006F00070479140C2F1200320FA03F31943904060
:100700007047202A06DBCB17203A41FA02F043EA71
:10071000E07306E041FA02F3D040C2F120029140BA
:100720000843194670470029A8BF7047401C49007C
:1007300008BF20F00100704710B4B0FA80FC00FA46
:100740000CF050EA010404BF10BC704749B1CCF171
:10075000200421FA04F411FA0CF118BF01212143FD
:100760000843A3EB0C01CB1D4FEA00614FEA1020B8
:1007700042BF002010BC704700EBC350104400295A
:10078000A4BF10BC7047401C490008BF20F0010006
:1007900010BC704710B5141E73F1000408DA401C39
:1007A00041F1000192185B411A4301D120F0010090
:1007B00010BD2DE9F04D92469B4611B1B1FA81F280
:1007C00002E0B0FA80F220329046FFF78BFF044639
:1007D0000F4640EA0A0041EA0B0153465A460843D5
:1007E00013D0114653EA010019D0C8F14002504617
:1007F00000F0A8F805460E46504659464246FFF717
:1008000071FF084305D0012004E020463946BDE8C9
:10081000F08D0020054346EAE0762C4337430A98E2
:100820006305E40AA0EB08000022FD0A44EA4754ED
:100830000A3002D500200146E9E701051019694197
:10084000DDE9084500196941BDE8F04DA2E770B542
:1008500021F0004303430CD0C1F30A550024D5EB2B
:10086000040564EB0403D617AD1AB34102DB002084
:10087000014670BD201841EB025170BD2DE9F04DCD
:1008800000231A461B1A8A4103DB00200146BDE8FB
:10089000F08DC1F30A52C1F3130141F480154FF0FA
:1008A000000BD10702D100186D41521E00270446EB
:1008B00040F2FF11384601EB620A3E46804602468E
:1008C00000204FF4801100F03DF8C2197141BB18AF
:1008D00046EB0100B4EB030C75EB000C04D3E41AF7
:1008E00065EB000517460E46241908F101006D411D
:1008F00080463428E3DDF91946EB0600091BA841C0
:1009000003D24FF0FF32134601E0002213461BEBE7
:10091000070046EB0A51BDE8F04DFFF73BBF000072
:10092000064C074D06E0E06840F0010394E807003C
:1009300098471034AC42F6D3FFF7DCFBB04F000809
:10094000D04F0008202A04DB203A21FA02F00021CF
:10095000704721FA02F3D040C2F1200291400843CF
:100960001946704770B58C1810F8015B15F0070335
:1009700001D110F8013B2A1106D110F8012B03E038
:1009800010F8016B01F8016B5B1EF9D12B0705D440
:100990000023521E0DD401F8013BFAE710F8013B89
:1009A000CB1A921C03E013F8015B01F8015B521EA5
:1009B000F9D5A142D8D3002070BD000070B59D4884
:1009C000007800287ED09C48B0F98000002803DD24
:1009D0009948B0F9800003E09748B0F980004042A0
:1009E000B0F5C87F6FDA9448B0F98200002803DDC3
:1009F0009148B0F9820003E08F48B0F9820040428C
:100A0000B0F5C87FEEDA8C48B0F98400002803DD29
:100A10008948B0F9840003E08748B0F98400404277
:100A2000B0F5C87FDEDA8449B1F98000FFF7DCFD5C
:100A30000446824801682046FFF74AFE05D27E49F7
:100A4000B1F98000FFF7D0FD01E07C4800687B49E8
:100A500008607949B1F98200FFF7C6FD044677487E
:100A600041682046FFF734FE05D27349B1F9820090
:100A7000FFF7BAFD01E071484068704948606E496F
:100A8000B1F98400FFF7B0FD04466C488168204648
:100A9000FFF71EFE05D26849B1F98400FFF7A4FDF7
:100AA00001E066488068654988606349B1F9800063
:100AB000FFF79AFD0446624801682046FFF7FEFDF5
:100AC00008D201E0B4E0AEE05B49B1F98000FFF785
:100AD0008BFD01E05A480068594908605649B1F950
:100AE0008200FFF781FD0446554841682046FFF724
:100AF000E5FD05D25049B1F98200FFF775FD01E02F
:100B00004F4840684E4948604B49B1F98400FFF7AF
:100B10006BFD04464A4881682046FFF7CFFD05D2A9
:100B20004549B1F98400FFF75FFD01E04448806862
:100B30004349886043480088B0F5FA6F73D10A468C
:100B400011683E4A1068FFF7FFFA06464FF07C51E5
:100B5000FFF752FB0546FFF755FD04B22046FFF7AD
:100B600043FD3549C1F88800354A5168334A506819
:100B7000FFF7EAFA06464FF07C51FFF73DFB0546CA
:100B8000FFF740FD04B22046FFF72EFD2A49C1F8C9
:100B90008C002B4A9168294A9068FFF7D5FA0646DF
:100BA0004FF07C51FFF728FB0546FFF72BFD04B201
:100BB0002046FFF719FD2049C1F89000204A11682E
:100BC0001E4A1068FFF712FB1F4908601C4A516853
:100BD0001A4A5068FFF70AFB1B494860184A916897
:100BE000164A9068FFF702FB174988600A46516869
:100BF0001068FFF733FB1049C1F89800124A91685A
:100C00001068FFF72BFB0C49C1F89C00032002F091
:100C100083FE00200B4908800649087003200B4919
:100C200008700120487007480088401C054908806A
:100C300070BD00007A0500202C0A002080050020ED
:100C40008C05002098050020940B0020440600200D
:100C50002DE9F04F87B0594800785949097890FB41
:100C6000F1F201FB120156480078401E814202D188
:100C7000012054490871514800785349097890FB84
:100C8000F1F201FB120150480078401E814202D16E
:100C900001204C494871494800784C49097890FB3B
:100CA000F1F201FB120149480078801E814202D115
:100CB000012044490874414800784549097890FB6F
:100CC000F1F201FB120142480078401E814202D13C
:100CD00001203C49C87039480078401CC0B23749EF
:100CE0000870C82801DD002008703648C07868B157
:100CF00000203449C87000900123019035480268F3
:100D0000354801683548006800F07EFA2D48007CBF
:100D100020B100202B49087400F018FB2948007905
:100D2000002841D00020274908712D49D1F8A8009A
:100D3000FFF768FC04B22A49D1F8A400FFF762FC6F
:100D400005B22749D1F8A000FFF75CFC06B22449A0
:100D5000486AFFF757FC07B22149086AFFF752FCBF
:100D60000FFA80F81E49C869FFF74CFC0FFA80F9AA
:100D70001B498869FFF746FC0FFA80FA1849486951
:100D8000FFF740FC0FFA80FB15490869FFF73AFCB2
:100D900000B24B4652465946CDE90087CDE902657F
:100DA0000494069000F062F90648407910B10020E2
:100DB0000449487107B0BDE8F08F0000140000201E
:100DC0001500002044060020160000201700002017
:100DD0001800002024000020200000201C0000201B
:100DE0002C0A002070B504460D460026002004E0C1
:100DF000215C3144CEB2411CC8B2691E8142F7DC8D
:100E0000601910F8010CB04200D070BD2078AA28FB
:100E100002D16078AF2800D0F7E7A078012835D15B
:100E20002079012802D13C4908702FE0207902285E
:100E300003D101203849487028E02079032804D1E3
:100E4000012035490870487020E02079042803D13A
:100E500001203249087019E02079312812D100F0C0
:100E600053FC00F08FFB642001F041F82C4800F0A7
:100E7000A5FC2B4800F0E2FB01202A49487102F052
:100E8000C9FC03E02079A02800D000BFA078022888
:100E900010D12079012806D123498871C8710872C0
:100EA00048728872C8722079A02802D101201E4998
:100EB000887000BFA078032802D102201949487029
:100EC000A078102803D1A078314600F0A3F8A078CC
:100ED000112803D1A078314600F09CF8A0781228A0
:100EE00003D1A078314600F095F8A078132803D1FB
:100EF000A078314600F08EF8A078142803D1A078AD
:100F0000314600F087F8A078152803D1A078314643
:100F100000F080F800BF78E72C0A00207A05002056
:100F200020A10700040000204406002010B504465C
:100F30003448007838B9AA2C05D10120314908700D
:100F4000314804705DE02F480078012807D1AF2CAC
:100F500005D102202B4908702B48447051E02948E4
:100F60000078022807D1F12C05DA03202549087002
:100F70002548847045E02348007803280CD1322CA2
:100F80000ADA04201F4908701F48C4701F48047003
:100F900000201F49087034E01A480078042819D14D
:100FA0001A480078002815DD18480078401E1749B7
:100FB00008701748007816490978491C144A1170BE
:100FC000001D11490C5411480078D0B905200D4975
:100FD000087016E00B48007805280FD10020094959
:100FE00008700B480078001D07490C540848007829
:100FF000401DC1B20448FFF7F5FE02E000200149A0
:10100000087010BD1B000020890600201900002078
:101010001A00002070B504460D46AA200D4908703C
:101020004870EF2088700220C8700846047145712E
:101030000026002005E00749095C3144CEB2411C7E
:10104000C8B20628F7DB03488671072100F004F8D0
:1010500070BD00005706002070B505460C462146BD
:10106000014800F015FC70BD570600202DE9F84F2F
:1010700005460E4617469846DDE90AAB0024AA222B
:101080002146641C5F4842542146641C425402229B
:101090002146641C425400222146641C425400959F
:1010A0009DF801202146641C42549DF800202146F1
:1010B000641C425400969DF801202146641C425451
:1010C0009DF800202146601CC4B24E48425400974F
:1010D0009DF801202046611CCCB24A490A549DF873
:1010E00000202046611CCCB246490A54CDF800804D
:1010F0009DF801202046611CCCB242490A549DF85B
:1011000000202046611CCCB23E490A54CDF800A014
:101110009DF801202046611CCCB23A490A549DF842
:1011200000202046611CCCB236490A54CDF800B0EC
:101130009DF801202146601CC4B2324842549DF8FB
:1011400000202146601CC4B22E4842540C980090E6
:101150009DF801202046611CCCB22A490A549DF812
:1011600000202046611CCCB226490A540D980090FC
:101170009DF801202046611CCCB222490A549DF8FA
:1011800000202046611CCCB21E490A540E980090E3
:101190009DF801202046611CCCB21A490A549DF8E2
:1011A00000202046611CCCB216490A540020009051
:1011B0009DF801202046611CCCB212490A549DF8CA
:1011C00000202046611CCCB20E490A54201FC87072
:1011D0004FF00009002006E00A49095C494401F08B
:1011E000FF09411CC8B2A042F6DB2046611CCCB20C
:1011F000044901F8009021460248FFF72DFFBDE8A1
:10120000F88F0000570600202DE9FE4F81460D465D
:1012100016461F46DDE90CAB00240197AA222146A1
:10122000641C484842542146641C42540122214611
:10123000641C425400222146641C425442494846E0
:10124000FEF7DAFF0090FFF7DDF900B202909DF89B
:1012500009202146641C3B4842549DF80820214641
:10126000641C425438492846FEF7C6FF0090FFF739
:10127000C9F900B202909DF809202146641C31484A
:1012800042549DF808202046611CCCB22D490A54D6
:101290002D493046FEF7B0FF0090FFF7B3F900B2DA
:1012A00002909DF809202046611CCCB225490A54C1
:1012B0009DF808202046611CCCB222490A549DF8B2
:1012C00007202046611CCCB21E490A549DF8062016
:1012D0002046611CCCB21B490A549DF805202046CB
:1012E000611CCCB217490A549DF804202046611CA9
:1012F000CCB214490A542046611CCCB2114901F801
:1013000000A02046611CCCB20E4901F800B0201F9D
:10131000C8704FF00008002006E00A49095C41440B
:1013200001F0FF08411CC8B2A042F6DB2046611C58
:10133000CCB2044901F8008021460248FFF78CFE38
:10134000BDE8FE8F570600200000C84238B50024D3
:10135000AA222146641C5E4842542146641C425421
:10136000F1222146641C425400222146641C42544E
:101370005848808800909DF801202146641C5448FC
:1013800042549DF800202146641C42545148C088B4
:1013900000909DF801202146641C4D4842549DF860
:1013A00000202046611CCCB249490A5449480089B2
:1013B00000909DF801202046611CCCB244490A549B
:1013C0009DF800202046611CCCB241490A54414896
:1013D000408900909DF801202046611CCCB23C4918
:1013E0000A549DF800202046611CCCB238490A54AA
:1013F0003848808900909DF801202146601CC4B2C5
:10140000334842549DF800202046611CCCB230493C
:101410000A543048C08900909DF801202046611C84
:10142000CCB22B490A549DF800202046611CCCB256
:1014300027490A542748B0F8800000909DF8012001
:101440002046611CCCB222490A549DF80020204657
:10145000611CCCB21E490A541E48B0F882000090AC
:101460009DF801202046611CCCB219490A549DF810
:1014700000202046611CCCB215490A541548B0F82A
:10148000840000909DF801202046611CCCB21049D8
:101490000A549DF800202046611CCCB20C490A5425
:1014A000201FC8700025002005E00949095C294477
:1014B000CDB2411CC8B2A042F7DB2046611CCCB2C1
:1014C00003490D5421460248FFF7C6FD38BD000010
:1014D000570600202C0A002018B50246002016E00E
:1014E0004B1E441CA3420ADB0B4BC35A00939DF8CE
:1014F000003013549DF80140431CD45405E0064BC2
:10150000C35A00939DF800301354831C98B288424C
:10151000E6DB012018BD0000000001082DE9F041C4
:1015200005460E4600F0BCFD154800F059FD80460A
:10153000B8F1040F02D00020BDE8F08100241BE0C8
:10154000701E611C884206DB295D601C285C01EB73
:10155000002087B203E0285D00F57F4087B208498C
:101560006018394600F07CFD8046B8F1040F01D0C8
:101570000020E1E7A01C84B2B442E1DB0120DBE7FC
:101580000000010808B5094802F092FB002240F271
:101590002551064802F0E7FB27208DF800000020C7
:1015A0008DF80300684602F0EBF808BD00480040E3
:1015B00010B51E48008800F0080020B11B49091D25
:1015C0000988C8B200BF1948008800F08000F0B157
:1015D00016480C30008800F08000C0B11448017833
:1015E0000078401C124A10701248405C0F49091DD7
:1015F00008801046007810490978884207D10B48C6
:101600000C30008820F0800008490C310880074821
:10161000008800F0200038B10448001D0088C4B2E2
:10162000204600F08FFA00BF10BD000000480040C7
:101630005C0100202C0900205D01002010B588B05D
:1016400004460121880402F0ADF90121082002F0CE
:10165000C9F94FF48060ADF8040003208DF806004E
:1016600018208DF8070001A9254800F038FD4FF437
:101670000060ADF8040003208DF8060004208DF80A
:10168000070001A91E4800F02AFD04940020ADF8CF
:101690001400ADF81600ADF81800ADF81C000C20D1
:1016A000ADF81A000020ADF80800ADF80A004FF4BC
:1016B0000070ADF80C000020ADF80E0004A9114830
:1016C00002F076FB02A90F4802F0D4FA012240F2A0
:1016D00025510C4802F047FB01210A4802F0DBFAD1
:1016E00027208DF8000004208DF8010001208DF8DE
:1016F00002008DF80300684602F042F808B010BD01
:10170000000C01400048004008B5094802F0D0FA3A
:10171000002240F22551064802F025FB25208DF8D5
:10172000000000208DF80300684602F029F808BD8B
:101730000038014010B508211C4802F007FB10B129
:101740001A4802F0A1FB1948008800F08000F0B1AF
:1017500016480C30008800F08000C0B114480178B1
:101760000078401C124A10701248405C0F49091D55
:1017700008801046007810490978884207D10B4844
:101780000C30008820F0800008490C3108800748A0
:10179000008800F0200038B10448001D0088C4B261
:1017A0002046FFF7C3FB00BF10BD0000003801401A
:1017B0005A0100202C0800205B01002010B588B0E1
:1017C00004460121880302F00DF90121084602F0C8
:1017D00009F90121042002F005F94FF40070ADF879
:1017E000040003208DF8060018208DF8070001A9D9
:1017F000254800F074FC4FF48060ADF8040003202D
:101800008DF8060004208DF8070001A91E4800F09D
:1018100066FC04940020ADF81400ADF81600ADF895
:101820001800ADF81C000C20ADF81A000020ADF82F
:101830000800ADF80A004FF40070ADF80C0000206D
:10184000ADF80E0004A9114802F0B2FA02A90F483F
:1018500002F010FA012240F225510C4802F083FAFE
:1018600001210A4802F017FA25208DF80000052012
:101870008DF8010001208DF802008DF80300684604
:1018800001F07EFF08B010BD0008014000380140A3
:1018900070B505460E4600240AE0295D0C48027822
:1018A0000078401C0A4B18700A488154601CC4B26E
:1018B000B442F2DB0848008800F0800030B9012211
:1018C00040F2277104480C3802F04DFA70BD000058
:1018D0005B0100202C0800200C38014070B5054643
:1018E0000E4600240AE0295D0C4802780078401C6E
:1018F0000A4B18700A488154601CC4B2B442F2DB2F
:101900000848008800F0800030B9012240F22771B9
:1019100004480C3802F027FA70BD00005D01002079
:101920002C0900200C48004010B546480078464974
:10193000097890FBF1F201FB120143480078401E48
:10194000814202D10120414908713E480078404956
:10195000097890FBF1F201FB12013D480078801EEE
:10196000814202D10120394908743648007839494A
:10197000097890FBF1F201FB120136480078401E15
:10198000814202D101203149C8702E480078324985
:10199000097890FBF1F201FB12012F480078801EBC
:1019A000814202D101202949C873264800782B4979
:1019B000097890FBF1F201FB120128480078C01E63
:1019C000814202D10120214948741E480078401C00
:1019D000C0B21C490870C82801DD002008701B48EF
:1019E000007818B10020194908702AE0174880785B
:1019F00018B100201549887023E01448C07860B100
:101A000000201249C8701648036816480268164834
:101A10000168012000F07CF913E00C48007918B14E
:101A200000200A4908710CE00848407C18B10020E9
:101A30000649487405E00548007C10B100200349C0
:101A4000087410BDA0050020A1050020D20B0020C5
:101A5000A2050020A3050020A4050020A505002064
:101A600024000020200000201C0000200278FE2A14
:101A700004D1421812F8012CFF2A00D070470279D5
:101A800082BB427972BB8279002A52D08279212AA4
:101A900006D1C379027A03EB0222274B5A8048E031
:101AA0008279222A06D1C379027A03EB0222224BE1
:101AB0009A803EE08279232A03D1C2791E4B5A7064
:101AC00037E08279242A03D1C2791B4B1A7030E0A7
:101AD0008279F02A2DD08279F82A2AD08279F92ABF
:101AE00027D026E0FFE70279012A13D142798AB98B
:101AF000C278812A07D1827952B2104B1A70C2790A
:101B000052B25A7015E0C278822A12D182790C4BF7
:101B10001A700EE00279022A02D1427902B908E075
:101B20000279062A05D142791AB9C278812A00D0F1
:101B300000BF00BFA2E700009A0500202C0A002089
:101B40007A05002010B504462B48007838B9FE2CE1
:101B500005D1012028490870284804704BE0264828
:101B6000007801280CD1322C0ADA022022490870B0
:101B700022484470224804700020224908703AE04C
:101B80001D480078022819D11D480078002815DD6D
:101B90001B480078401E1A4908701A4800781949F5
:101BA0000978491C174A1170801C14490C541448B8
:101BB000007800BB0320104908701CE00E48007834
:101BC000032815D1FF2C03D100200B49087002E037
:101BD0000020094908700B480078801C07490C5404
:101BE00008480078C01CC1B20448FFF73FFF02E07C
:101BF00000200149087010BDA8050020E50B002059
:101C0000A6050020A70500207FB50646154600243E
:101C1000FE222146641C2048425400222146641CB6
:101C2000425480222146641C42542146641C46547E
:101C30009DF804202146641C42549DF8052021464D
:101C4000641C42542146641C4554112D01D0122DB0
:101C50000ED19DF80C202046611CCCB20E490A54CE
:101C60009DF80D202046611CCCB20B490A5406E0B9
:101C70009DF80C202046611CCCB207490A54FF2273
:101C80002046611CCCB204490A54E01E487020462C
:101C900000F004F87FBD0000A00B002010B5044642
:101CA00021460248FFF71AFE10BD0000A00B0020DD
:101CB000F7B5054616460024FE222146641C13484B
:101CC000425400222146641C425480222146641C56
:101CD00042542146641C45549DF804202146641C4E
:101CE00042549DF805202146641C42542146641C40
:101CF0004654FF222046611CCCB204490A54E01E1F
:101D000048702046FFF7CAFFFEBD0000A00B002070
:101D10002DE9FF4182B00D4616461F460024FE22E3
:101D20002146641C3448425400222146641C42541B
:101D300080222146641C425481222146641C425464
:101D40009DF808202146641C42549DF80920214634
:101D5000641C425429492846FEF74EFA8046FEF795
:101D600051FC00B201909DF804202146641C2248D9
:101D700042549DF805202046611CCCB21E490A54ED
:101D80001E493046FEF738FA8046FEF73BFC00B2AB
:101D900001909DF804202046611CCCB216490A54DB
:101DA0009DF805202046611CCCB213490A54134902
:101DB0003846FEF721FA8046FEF724FC00B2019077
:101DC0009DF804202046611CCCB20B490A549DF8B2
:101DD00005202146601CC4B207484254FF22204619
:101DE000611CCCB204490A54E01E48702046FFF73B
:101DF00055FF06B0BDE8F081A00B00200000C842EE
:101E000010B50024012200212120FFF751FF0222FA
:101E100000212120FFF74CFF032200212120FFF7A2
:101E200047FF042200212120FFF742FF0A2000F093
:101E300051F8274840780F2806D00F23132200219D
:101E40002120FFF7E1FE01242148808842F2210190
:101E5000884206D00B46122200212120FFF7D4FE33
:101E600001241B484088022806D0022311220021A9
:101E70002120FFF7C9FE0124154800780C2806D060
:101E80000C23142200212120FFF7BEFE0124012C87
:101E90001CD1102200212120FFF70AFF4FF4FA6025
:101EA00000F018F8012200212120FFF701FF022293
:101EB00000212120FFF7FCFE032200212120FFF753
:101EC000F7FE042200212120FFF7F2FE10BD0000E2
:101ED0009A05002011B5002405E04FF47A7000F057
:101EE00006F8601C84B200988442F6D318BD11B580
:101EF00000F080F9044600BF00F07CF9001B009957
:101F00008842F9D318BD10B501F0C6FB10BD70476B
:101F100010B500F06FF9204908600868FEF76DFB06
:101F200004461E4801682046FEF760F91B49086018
:101F300000211A480068FEF7C1FB02D21848174971
:101F40000860FEF785FE012001F0AAF8FFF7ECFC1F
:101F500001F092FB134911480068FEF77FF904462F
:101F600001F04AFA0F490D480068FEF777F9044678
:101F700000F016FB00F03EF9074904464860FEF702
:101F80003CFB064908600448406803490968401A58
:101F90000149886010BD0000EC0500200000002011
:101FA0000000FA440024744910B50A48007801285A
:101FB00007D16420084908700846007801F076F8D7
:101FC00006E02820044908700846007801F06EF801
:101FD00010BD00007A05002050010020704700006D
:101FE00030B5044604254FF4302000F065F805466E
:101FF000042D17D10C48006940F002000A4908611D
:1020000008464461006940F0400008614FF4302008
:1020100000F052F805460448006941F6FD71084099
:1020200001490861284630BD0020024004200B49C8
:10203000C96801F0010109B101200EE00749C96832
:1020400001F0040109B1022007E00449C96801F068
:10205000100109B1032000E0042070470020024075
:1020600070B504460D460426F00200F025F8064639
:10207000042E11D10948006940F0010007490861A8
:102080002580F00200F018F806460448006941F681
:10209000FE71084001490861304670BD00200240D1
:1020A0000248034948600348486070472301674578
:1020B00000200240AB89EFCD00B502460423FFF7B4
:1020C000B5FF034603E0FFF7B1FF0346521E012BA5
:1020D00001D1002AF7D102B90523184600BD2DE928
:1020E000F04102460025002600200023002400279E
:1020F00091F803C00CF00F0591F803C00CF0100C20
:10210000BCF1000F03D091F802C04CEA050591F82C
:1021100000C0BCF1000F31D0146800202BE04FF05C
:10212000010C0CFA00F3B1F800C00CEA03069E4261
:1021300020D183004FF00F0C0CFA03F7BC4305FAD3
:1021400003FC4CEA040491F803C0BCF1280F06D14B
:102150004FF0010C0CFA00FCC2F814C00AE091F830
:1021600003C0BCF1480F05D14FF0010C0CFA00FC84
:10217000C2F810C0401C0828D1D31460B1F800C0C8
:10218000BCF1FF0F34DD546800202EE000F1080C94
:102190004FF0010808FA0CF3B1F800C00CEA03068E
:1021A0009E4221D183004FF00F0C0CFA03F7BC4381
:1021B00005FA03FC4CEA040491F803C0BCF1280FB3
:1021C00005D100F1080C08FA0CF8C2F8148091F857
:1021D00003C0BCF1480F07D100F1080C4FF0010813
:1021E00008FA0CF8C2F81080401C0828CED35460BE
:1021F000BDE8F08100BF0E4801684FF0E020826921
:102200000B4800688142F6D10A48006800EB4003A1
:10221000C3EBC010C2EBC000064B1B68B0FBF3F071
:1022200001EB4103C3EBC11300EBC3007047000097
:10223000640100206001002000B540200A490860C8
:1022400000F01AF980200849086000F015F94020D4
:102250000549091F086000F00FF940200249086095
:1022600000F00AF900BD0000140C014008B501217E
:10227000082001F0B7FB4020ADF8000003208DF8E6
:10228000020014208DF8030069460848FFF727FF75
:102290008020ADF8000003208DF8020014208DF896
:1022A000030069460148FFF71AFF08BD000C014012
:1022B00000B540200A49086000F0DEF88020084997
:1022C000091F086000F0D8F840200549091F086080
:1022D00000F0D2F840200249086000F0CDF800BDBF
:1022E000140C014030B50446082500238020144911
:1022F000086014E05806030E40201149091D0860CB
:1023000000F0BAF840200E49086000F0B5F80C481B
:102310000838006800F0800008B143F00103281E6F
:10232000A5F10101CDB2E5D140200549091D0860A4
:1023300014B1FFF781FF01E0FFF7BAFF184630BD87
:10234000100C014010B50346082419E04020114943
:10235000086000F091F803F0800020B180200D4962
:10236000091F086002E080200A4908605806030E31
:1023700000F082F840200749091F086000F07CF84F
:10238000201EA4F10101CCB2E0D140200149086037
:1023900010BD0000140C014000B5802013490860F6
:1023A0004020086000F068F810480838006808B954
:1023B000012000E0002000F0800008B1002000BDF6
:1023C00080200A49091D086000F056F807480838BF
:1023D000006800F0800008B10020F0E78020034989
:1023E000091D086000F048F80120E8E7100C0140E2
:1023F00000B540200A49086000F03EF880200849F6
:10240000086000F039F840200549091F086000F015
:1024100033F880200249091F086000F02DF800BD44
:10242000140C014000B5002340201249086000F060
:1024300023F880200F49091F086000F01DF8402094
:102440000C49091F086000F017F80A480C380068AA
:1024500000F0800038B1581CC3B2C82B03DDFFF771
:10246000C7FF012000BD40200249086000F004F8C9
:102470000020F7E7140C014000BF00BF00BF00BF01
:102480000548007838B9052000BF011EA0F10102FF
:10249000D0B2FAD100BF70476801002070B5044681
:1024A0000D461646FFF778FF6106080EFFF74AFF54
:1024B000FFF7B8FF18B1FFF79BFF012070BD28465A
:1024C000FFF740FFFFF7AEFFFFF766FF012101EBCB
:1024D0004401C8B2FFF736FFFFF7A4FF0020FFF763
:1024E00001FF3070FFF784FF0020E7E7F0B50646F4
:1024F0000F4614461D46FFF74FFF18490870710636
:10250000080EFFF71FFFFFF78DFF18B1FFF770FFF1
:102510000120F0BD3846FFF715FFFFF783FFFFF7F7
:102520003BFF012101EB4601C8B2FFF70BFFFFF7AC
:1025300079FF0DE0012C04D10020FFF7D3FE2870B5
:1025400003E00120FFF7CEFE28706D1C601EC4B2B0
:10255000002CEFD1FFF74CFF0020DAE769010020E3
:1025600070B504460D461646FFF716FF6106080EC5
:10257000FFF7E8FEFFF756FF18B1FFF739FF01201C
:1025800070BD2846FFF7DEFEFFF74CFF3046FFF731
:10259000D9FEFFF747FFFFF72BFF0020F0E7000011
:1025A0002DE9F04F89B082469A4988694FF08B41F6
:1025B000FDF754FE0546974948694FF08B41FDF7FA
:1025C0004DFE0646934908694FF08B41FDF746FEE4
:1025D00081469049086B9049FDF70EFE83468F496E
:1025E000FDF73CFE07468B49C86A8B49FDF704FEA0
:1025F00083468A49FDF732FE80468649886A8649C5
:10260000FDF7FAFD83468549FDF728FE0446844818
:1026100000210391CDE904104B463A46CDF818A0AD
:10262000CDE9006502914146204600F0CFF97C4893
:10263000C1684FF08040FDF7DFFD07907848C16822
:102640000798FDF7D9FD8146754881684FF04040F5
:10265000FDF7D2FD0790724881680798FDF7CCFD21
:1026600083464946FDF7C2FD80464FF07E51FDF797
:102670006BFD06466A4801684FF08040FDF7BCFDDF
:1026800083466748C1685846FDF7B6FD80466448F2
:1026900041684FF08040FDF7AFFD83466048816898
:1026A0005846FDF7A9FD81464146FDF74DFD074619
:1026B000314602F0C7F980F0004558492846FDF739
:1026C0009BFD04465449FDF7C9FD5649086054482E
:1026D00001684FF08040FDF78FFD039050488168FE
:1026E0000398FDF789FD05904D4841684FF0404043
:1026F000FDF782FD03904A48C1680398FDF77CFD11
:1027000004900599FDF720FD8346FDF7A8FFCDE96C
:10271000060101F07DFE80460022434BFDF783FE5B
:1027200006464FF0C042414BFDF7EFFE0446FDF771
:10273000A9FF3C4988603A4881684FF08040FDF726
:102740005BFD8346364881685846FDF755FD804657
:10275000334841684FF04040FDF74EFD8346304816
:1027600041685846FDF748FD81464146FDF73EFD6C
:1027700005464FF07E51FDF7E7FC0446FDF76FFF7D
:10278000CDE90201264801684FF08040FDF734FD95
:102790008146234841684846FDF72EFD05462048FE
:1027A00081684FF08040FDF727FD81461C48C168D5
:1027B0004846FDF721FD80462946FDF7C5FC044645
:1027C000FDF74DFFCDE90001DDE9022302F068F8D5
:1027D0000022154BCDE90401FDF725FE4FF0C04264
:1027E000124BCDE90601FDF790FE0646FDF74AFFC4
:1027F0000C494860084600680D490860094840686F
:102800000C490860074880680B49086009B0BDE8BA
:10281000F08F00002C0A0020DB0F494000003443F9
:10282000F40700201408002000806640FB210940C6
:1028300024000020200000201C000020F8B50446E1
:102840000D46002000900126012701205E490870F6
:10285000292C14D006DC052C0BD00A2C0BD0142C00
:1028600015D10AE05C2C0CD0B82C0CD0FA2C0ED16F
:102870000BE006260DE005260BE0042609E0032602
:1028800007E0022605E0012603E0002601E0072616
:1028900000BF00BF292D15D006DC052D0CD00A2D58
:1028A0000CD0142D16D10BE05C2D0DD0B82D0DD011
:1028B000B5F5E67F0ED10BE006270DE005270BE00E
:1028C000042709E0032707E0022705E0012703E0CA
:1028D000002701E0082700BF00BFFFF7C7FC0A2060
:1028E000FFF7F8FA80226B216820FFF739FE0A20F3
:1028F000FFF7F0FA00226B216820FFF731FE0A2073
:10290000FFF7E8FA6A4675216820FFF7C7FD9DF8D2
:102910000000732803D09DF80000712851D10022D7
:102920006C216820FFF71CFE0A20FFF7D3FA002273
:1029300019216820FFF714FE0A20FFF7CBFA324670
:102940001A216820FFF70CFE0A20FFF7C3FA1022B5
:102950001C216820FFF704FE0A20FFF7BBFA3A4665
:102960001D216820FFF7FCFD0A20FFF7B3FA1822AB
:102970001B216820FFF7F4FD0A20FFF7ABFA0022C5
:102980006A216820FFF7ECFD0A20FFF7A3FA002276
:1029900038216820FFF7E4FD0A20FFF79BFA0222A6
:1029A00037216820FFF7DCFD0A20FFF793FA0020AB
:1029B000054908706A4600210C20FFF76FFD0020D2
:1029C000F8BD0120FCE70000680100200FB59FB0B2
:1029D000002010900F900E9025990846FDF70CFCF2
:1029E000069024990846FDF707FC049022990846B2
:1029F000FDF702FC03900499FDF7A6FB05900699EC
:102A0000FDF7A2FB079002F0D3F81E901E992298C2
:102A1000FDF7F2FB22901E992498FDF7EDFB249020
:102A20001E992598FDF7E8FB259028990846FDF7A3
:102A3000E3FB069027990846FDF7DEFB04902699F4
:102A40000846FDF7D9FB03900499FDF77DFB05903F
:102A50000699FDF779FB079002F0AAF81E901E99DF
:102A60002698FDF7C9FB26901E992798FDF7C4FB11
:102A700027901E992898FDF7BFFB2890FE48016813
:102A80000068FDF7B9FB1D90FC480168FA48006832
:102A9000FDF7B2FB1C90FA480168F7480068FDF7A3
:102AA000ABFB1B90F7480168F3480068FDF7A4FBF7
:102AB0001A90F24801680068FDF79EFB1990F048F3
:102AC0000168EE480068FDF797FB1890ED48016833
:102AD000EA480068FDF790FB1790E9480168006834
:102AE000FDF78AFB1690E7480168E5480068FDF7A6
:102AF00083FB1590E34801680068FDF77DFB1490A7
:102B00001B991798FDF772FB4FF080410790FDF776
:102B100073FB0D9015991C98FDF716FB4FF0804143
:102B20000790FDF769FB0C9014991D98FDF70CFBBD
:102B30004FF080410690FDF75FFB4FF07E5107900C
:102B4000FDF754FB0B900C992598FDF755FB07906A
:102B50000B992498FDF750FB06900799FDF746FB6B
:102B60000A900B992298FDF747FB07900D9925983D
:102B7000FDF742FB06900799FDF738FB09900D9988
:102B80002498FDF739FB07900C992298FDF734FB48
:102B900006900799FDF72AFB0890BB480068BB49DF
:102BA0000790FDF7D1FAB849086008460069B749AF
:102BB0000790FDF7C9FAB44908610846006AB349AD
:102BC0000790FDF7C1FAB04908622422B048FDF72A
:102BD000A9FA2422AC49AF48FDF7A4FAAD48006831
:102BE000AD490790FDF7B0FAAA49086008460069A8
:102BF000A9490790FDF7A8FAA64908610846006AA6
:102C0000A2490790FDF7A0FAA2490862A349A44887
:102C100001F0D6F9A34AA149A34801F04DFBA3480E
:102C200001680A98FDF7E2FA1090A1480168099836
:102C3000FDF7DCFA0F909F4801680898FDF7D6FA77
:102C40000E909D48806804900E99FDF7D5FA069085
:102C50009948406802900F99FDF7CEFA0490964883
:102C6000006802901099FDF7C7FA03900499FDF7E8
:102C70006BFA05900699FDF767FA07908B48016893
:102C80000798FDF761FA894908608B48406904900C
:102C90000E99FDF7B1FA06908748006902900F99E6
:102CA000FDF7AAFA04908448C06802901099FDF7D5
:102CB000A3FA03900499FDF747FA05900699FDF7EA
:102CC00043FA07907A4801680798FDF73DFA78497A
:102CD00008607948006A04900E99FDF78DFA069015
:102CE0007548C06902900F99FDF786FA0490724802
:102CF000806902901099FDF77FFA03900499FDF71F
:102D000023FA05900699FDF71FFA079069480168B4
:102D10000798FDF719FA6749086067480068014697
:102D200007904FF07E50FDF761FA6349086008464E
:102D30000069014607904FF07E50FDF757FA5E4953
:102D400008610846006A014607904FF07E50FDF783
:102D50004DFA59490862594A5949524801F0ACFAAA
:102D6000242258494848FDF7DDF9504801681F986A
:102D7000FDF7EAF91F904E4801682098FDF7E4F945
:102D800020904C4801682198FDF7DEF921904FF022
:102D90007C502A99FDF730FA07901F99FDF72CFA1D
:102DA0001F904FF07C502A99FDF726FA0790209942
:102DB000FDF722FA20904FF07C502A99FDF71CFA7B
:102DC00007902199FDF718FA21902B48006813907D
:102DD0002A48006812902A480068119029482199D1
:102DE0000068FDF709FA069020991198FDF704FA9A
:102DF0000490129880F0004002901F99FDF7FCF9B2
:102E000003900499FDF7F2F905900699FDF7EEF9A4
:102E10000790194801680798FDF796F91649086068
:102E2000184820990068FDF7E7F906902199119854
:102E3000FDF7E2F9049013991F98FDF7DDF903906F
:102E40000499FDF781F905900699FDF7CFF90790F0
:102E50000A4801680798FDF777F9084908600948AA
:102E600001681F98FDF7C8F9069021991298FDF79F
:102E7000C3F90490209927E0F8000020FC0000200E
:102E80000001002004010020AC000020BD37863581
:102E90003407002058070020ACC527378C000020DD
:102EA00084000020940000207C000020D00000203E
:102EB000D4000020D8000020A0070020A40000209B
:102EC0009C000020C40700201398FDF795F903909B
:102ED0000499FDF78BF905900699FDF735F90790F0
:102EE0003C4801680798FDF72FF93A4908601199A5
:102EF0001F98FDF781F9069020991298FDF77CF94B
:102F0000049021991398FDF777F903900499FDF740
:102F10001BF905900699FDF769F907902E4801689D
:102F20000798FDF711F92C49086008460168006808
:102F3000FDF762F90690274801680068FDF75CF923
:102F40000490264801680068FDF756F9029024486D
:102F500001680068FDF750F901900299FDF7F4F857
:102F600003900499FDF7F0F805900699FDF7ECF849
:102F7000079001F01DFE1E9019481E990068FDF78C
:102F80003BF91749086015481E990068FDF734F9A8
:102F9000124908600F481E990068FDF72DF90D4988
:102FA00008600D481E990068FDF726F90A49086077
:102FB0000B48016829980160084801682998416018
:102FC0000448016829988160034801682998C16014
:102FD00023B000BD0001002004010020FC000020FF
:102FE000F800002010B5124B03221146114800F0E2
:102FF000E3FF114B03221146104800F0DDFF104B98
:10300000032211460F4800F0D7FF0F4B0322114651
:103010000E4800F0D1FF0E4B032211460D4800F080
:10302000CBFF0D4B032211460C4800F0C5FF10BD2D
:10303000340700207C000020580700208400002076
:103040007C0700208C000020A007002094000020B6
:10305000AC0000209C000020C4070020A400002039
:1030600000B50C4800880C490988884202DA00F053
:10307000D1FB01E000F0C6FB06480088401C80B28E
:103080000449088005490988884202DB002001497B
:10309000088000BD5801002054010020520100208A
:1030A00000B502460AB1FFF7DBFF00BD2DE9F04194
:1030B0000446642C00DD64242046FDF79EFA804619
:1030C0000949FDF7CBF8064608480088FDF795FA50
:1030D00007463146FDF790F80546FDF7ACFA04497E
:1030E0000880BDE8F08100000000C84252010020C5
:1030F000540100202DE9FE4F06460F4615461C469A
:1031000028462168FDF772F8124902903046FDF713
:1031100073F839460090FDF76FF8014601904FF0C3
:103120007E50FDF79BF883464FF07E51FDF70CF87B
:10313000824651464FF07E50FDF790F88146029945
:10314000FDF75AF880462168FCF7FEFF2060BDE8D5
:10315000FE8F0000C3F5C8401648008A401C154980
:1031600008820846C088401C00B2C8800846008912
:10317000401C00B2088108464089401C00B24881CA
:1031800008468089401C00B288810846C089401CDE
:1031900000B2C88108460078022804DB084640884F
:1031A000401C488004E003480078401C0149087036
:1031B00070470000D805002070B5874800780128C6
:1031C0007DD18549B1F904104943834AB2F90630EB
:1031D000B2F9062003FB02127F49B1F90830B1F9B8
:1031E000081003FB0120FDF7FFF9054601F056FD2D
:1031F00004467A49FDF762FA1AD37749B1F9041007
:103200004943754AB2F90630B2F9062003FB0212AF
:103210007149B1F90830B1F9081003FB0120FDF73D
:10322000E3F9054601F03AFD04466D49FDF750FA11
:103230006C48008800F101006A4908806A4800680B
:103240006549B1F9041008446749086008464168B7
:103250006148B0F90600084463494860084681683F
:103260005D48B0F90800A0F5805008445E498860C8
:10327000084680695849B1F9741008445A49886170
:103280005848008832283ADB08460068322190FB13
:10329000F1F42046FDF7A8F94F49486352484068C9
:1032A000322190FBF1F42046FDF79EF94A498863EC
:1032B0004D488068322190FBF1F4204600E01EE08A
:1032C000FDF792F94449C86347488069322190FB71
:1032D000F1F42046FDF788F93F494866002041494E
:1032E00008803D490870012040490870487000F08E
:1032F00013FB00203C4988618860486008603648BC
:103300004078002866D03A480088401C3849088038
:10331000354800693049B1F90A100844324908615A
:103320000846C1682C48B0F90C0008442E49C86012
:10333000084641692848B0F90E0008442A49486106
:10334000084680692449B1F9741008442649886107
:103350002748008832283DDB0869FDF745F9044617
:103360002449FCF77BFF1C4908641F49C868FDF726
:103370003BF904461F49FCF771FF174948641A4995
:103380004869FDF731F904461A49FCF767FF12490D
:10339000886415488069322190FBF1F42046FDF7DE
:1033A00023F90D4988660020114908800A484078B1
:1033B000012807D1022000F0AFFA02200B49087063
:1033C000012048700020044948700749886148611D
:1033D000C860086170BD00002C0A002000401C4538
:1033E000008022457C050020780B00204406002048
:1033F0007E050020000048422DE9F0410446FFF719
:10340000DBFE824840788149097840EA012000B219
:103410007F4988807D48C0787C49897840EA0120CE
:1034200001B27B48C180794840797849097940EAFE
:10343000012001B2764801817448407A7349097AC3
:1034400040EA012000B2724948817048C07A6F4951
:10345000897A40EA012001B26D4881816B48407B46
:103460006A49097B40EA012001B26948C181B0F98B
:103470000410684800F0F8F86548B0F9061065488F
:10348000143000F0F1F86248B0F9081061482830B3
:1034900000F0EAF85E48B0F90A105E48503000F0DB
:1034A000E3F85B48B0F90C105A48643000F0DCF8DF
:1034B0005748B0F90E105748783000F0D5F8564804
:1034C0000078401C0A2190FBF1F201FB12005249E6
:1034D0000870504800F0ACF806464D48416B304645
:1034E000FCF784FE05464A4B10332A4621464B48DA
:1034F000FFF700FE4748143000F09AF806464448AB
:10350000816B3046FCF772FE0546414B14332A4668
:1035100021464248FFF7EEFD3E48283000F088F88B
:1035200006463B48C16B3046FCF760FE0546384B0B
:1035300018332A4621463948FFF7DCFD354850301C
:1035400000F076F805463248016C2846FCF74EFE3E
:103550002F49C8612F48643000F06AF805462C48AE
:10356000416C2846FCF742FE294908622948783018
:1035700000F05EF805462648816C2846FCF736FECA
:10358000234948622148C0792049897940EA0120CD
:1035900000B21F49A1F87400B1F97400FDF724F8D6
:1035A00080461B48816F4046FCF720FE06461C49BA
:1035B0002046FCF721FE07463146FCF71DFE054676
:1035C0001348816F2846FCF7BFFD11498867886F53
:1035D0001449FCF743FE05461349FCF7B5FD0C49B9
:1035E000C867C8691149FCF707FE09498862086A7B
:1035F0000E49FCF701FE0649C862486A0B49FCF710
:10360000FBFD03490863BDE8F0810000D80A0020F3
:103610002C0A0020EC0A0020790500200000A041BF
:10362000C3F5C8405CEFA6430000A84198FA793D75
:103630002DE9F04105460026002409E035F9140083
:10364000FCF7D2FF07463146FCF77EFD0646641CB8
:103650000A2CF3DB03493046FCF700FE06463046F1
:10366000BDE8F08100002041024A127820F81210D3
:10367000704700007905002010B50120044908704A
:10368000044B0E223B216820FEF730FF10BD0000E6
:1036900068010020D80A00201CB5002035490870B8
:1036A000354B062203210C20FEF720FF32480E384E
:1036B000807B31490E39C97B40EA012000B2ADF868
:1036C00002002D480E38007C2B490E39497C40EA17
:1036D000012000B2ADF8000027480E38807C264952
:1036E0000E39C97C40EA0120404200B2ADF8040026
:1036F000BDF800002149A1F88000BDF802101F4864
:10370000A0F88210BDF80410A0F884100146B1F9A9
:103710008000FCF769FF04461848D0F8881020465E
:10372000FCF764FD1549C1F8A000B1F98200FCF76F
:103730005BFF04461148D0F88C102046FCF756FD7C
:103740000E49C1F8A400B1F98400FCF74DFF04460E
:103750000A48D0F890102046FCF748FD0749C1F808
:10376000A800FDF72BF911220A210C20FEF7F8FE24
:103770001CBD000068010020E60A00202C0A002081
:1037800070B5002100230F22C47804B3154C2468BF
:1037900004F4E064C4F5E064210AC1F10403CA4002
:1037A000447804FA03F184781440214309010E4C53
:1037B0000678A155047804F01F050124AC40057873
:1037C0006D11AD0005F1E025C5F8004109E0047870
:1037D00004F01F050124AC40044D0678761145F82D
:1037E000264070BD0CED00E000E400E080E100E068
:1037F00002490143024A1160704700000000FA05C7
:103800000CED00E04FF400500149086170470000E2
:10381000001001404FF4005001494861704700001A
:103820000010014008B50121102000F0DBF84FF432
:103830000050ADF8000003208DF8020010208DF834
:10384000030069460248FEF74AFCFFF7DBFF08BDAC
:103850000010014010B5AA200F49087000204860F0
:1038600000210D488160C16000200B4908610021E2
:1038700009484161816100200749C861002106486B
:103880000162416200200449C86288623021024816
:10389000FDF744FE10BD00001406002010B53021D5
:1038A0001B48FDF719FE1A480078AA2802D0FFF736
:1038B000D1FF2CE0164840681649486314488168D7
:1038C000144881631248C1681248C1631048C06A35
:1038D000104948660E48006908640D4841690D4862
:1038E00041640B4881690B4881640948806A094931
:1038F00088660748C069C1F888000548016A05481C
:10390000C0F88C100248416A0248C0F8901010BDFF
:10391000140600202C0A002010B50446012C04D007
:10392000022C13D0032C32D121E01C48406B1C49DF
:1039300048601A48816B1A4881601848C16B184862
:10394000C1601648406E1649C86221E01348006CF9
:10395000134908611148416C114841610F48816C5D
:103960000F4881610D48806E0D49886210E00B4858
:10397000D0F888000A49C8610848D0F88C10084877
:1039800001620648D0F890100548416200E000BF8F
:1039900000BF30210248FDF7C1FD10BD2C0A0020F8
:1039A0001406002029B1064AD2690243044BDA61A9
:1039B00004E0034AD2698243014BDA617047000098
:1039C0000010024029B1064A12690243044B1A61F1
:1039D00004E0034A12698243014B1A6170470000F8
:1039E0000010024029B1064A92690243044B9A61D1
:1039F00004E0034A92698243014B9A6170470000D8
:103A00000010024029B1064AD2680243044BDA6032
:103A100004E0034AD2688243014BDA607047000039
:103A20000010024030B500210022002400232D4D5B
:103A30006D6805F00C0121B1042905D0082923D1B6
:103A400005E0294D056022E0274D05601FE0254D6A
:103A50006D6805F47012234D6D6805F480340225FD
:103A600005EB92421CB9214D554305600BE01D4DFD
:103A70006D6805F400351DB11C4D5543056002E02D
:103A8000194D5543056002E0174D056000BF00BFAA
:103A9000144D6D6805F0F0010909154D6B5C056862
:103AA000DD4045600F4D6D6805F4E061090A104D79
:103AB0006B5C4568DD4085600A4D6D6805F46051BA
:103AC000C90A0B4D6B5C4568DD40C560054D6D68EE
:103AD00005F44041890B074D6B5CC568B5FBF3F5F8
:103AE000056130BD0010024000127A0000093D005F
:103AF000C0050020D005002010B500F001F810BD71
:103B00000CB50020019000903348006840F48030EC
:103B10003149086000BF3048006800F40030009070
:103B20000198401C0190009818B90198B0F5A06F59
:103B3000F1D12948006800F4003010B10120009054
:103B400001E0002000900098012843D1234800683C
:103B500040F01000214908600846006820F003008A
:103B600008600846006840F0020008601A48406893
:103B7000194948600846406848600846406840F473
:103B8000806048600846406820F47C104860084621
:103B9000406840F4E81048600846006840F08070D3
:103BA000086000BF0C48006800F000700028F9D0E1
:103BB0000948406820F0030007494860084640680B
:103BC00040F00200486000BF0348406800F00C006D
:103BD0000828F9D10CBD000000100240002002406E
:103BE00010B500F001F810BD10B505480068401C84
:103BF00003490860FFF7B0FA01F00AF910BD0000B0
:103C00006401002010B51348006840F0010011491C
:103C1000086008464068104908400E494860084658
:103C200000680E4908400B4908600846006820F407
:103C3000802008600846406820F4FE0048604FF489
:103C40001F008860FFF758FF4FF0006004490860CC
:103C500010BD0000001002400000FFF8FFFFF6FE5C
:103C600008ED00E010B5FDF765FD10BD10B5FDF7DE
:103C70009FFC10BD10B502460020108A4FF2FF03D2
:103C800018400B884C8823438C882343CC882343DB
:103C90001843108210BD21B1828942F40052828102
:103CA00004E082894DF6FF731A408281704700005C
:103CB00010B504462048844209D101218803FFF74A
:103CC000A1FE00214FF48040FFF79CFE32E01B482C
:103CD000844209D101214804FFF774FE00214FF40A
:103CE0000030FFF76FFE25E01548844209D101211D
:103CF0008804FFF767FE00214FF48020FFF762FE83
:103D000018E01048844209D10121C804FFF75AFE87
:103D100000214FF40020FFF755FE0BE00A488442D3
:103D200008D101210805FFF74DFE00214FF4801056
:103D3000FFF748FE10BD000000380140004400407D
:103D400000480040004C0040005000400246002067
:103D5000B1F5007F00D100BF13880B400BB10120EB
:103D600000E000207047F0B503460024002600253F
:103D7000002040F66A17B94200D100BF1846C1F3CF
:103D8000421401F01F06012707FA06F5012C01D1A4
:103D90000C3004E0022C01D1103000E014301AB1D4
:103DA00007682F43076002E00768AF430760F0BD74
:103DB0002DE9F04786B005460E460024A24600BF16
:103DC000A1460027B08900B100BF2F462C8A4CF6CF
:103DD000FF700440F08804432C82AC894EF6F31047
:103DE0000440B08831890843718908430443AC8199
:103DF000AC8A4FF6FF400440B0890443AC8201A86E
:103E0000FFF710FE1F48874202D1DDF810A001E045
:103E1000DDF80CA0A88900F4004040B10AEBCA000C
:103E200000EB0A1031684900B0FBF1F807E00AEB3B
:103E3000CA0000EB0A1031688900B0FBF1F8642079
:103E4000B8FBF0F004012009642101FB1089A88966
:103E500000F4004040B1322000EBC900B0FBF1F0AB
:103E600000F00700044308E0322000EB0910642151
:103E7000B0FBF1F000F00F0004432C8106B0BDE868
:103E8000F08700000038014001468888C0F3080030
:103E90007047490050EAC12018BF04204A0D18BFDE
:103EA00040F0010040F2FF72B2EB515F08BF40F0FA
:103EB0000200012808BF052070472DE9F0414F1E80
:103EC00000EBC7010446D1E9000115461E4637F054
:103ED00006020DD02A463346FCF7A5FA7F1E04EBF6
:103EE000C703D3E90023FCF7F7F937F00602F1D155
:103EF000022F25D0042F13D0062F18BFBDE8F08164
:103F00002A463346FCF78FFAD4E90A23FCF7E4F992
:103F10002A463346FCF787FAD4E90823FCF7DCF994
:103F20002A463346FCF77FFAD4E90623FCF7D4F996
:103F30002A463346FCF777FAD4E90423FCF7CCF998
:103F40002A463346FCF76FFAD4E90223FCF7C4F99A
:103F50002A463346FCF767FAD4E90023BDE8F0416E
:103F6000FCF7BAB90122FCF772BCFCF7B5B9002224
:103F7000134610461146FCF7C8BA0000024A00205A
:103F80001107FCF764BC000001FDFFFF02E008C858
:103F9000121F08C1002AFAD170477047002001E0C3
:103FA00001C1121F002AFBD17047000001490860BF
:103FB00070470000D40500200180428043607047B4
:103FC0002DE9F34F91B01198406810901298406815
:103FD0000F901198B0F800B0119845880020079014
:103FE0000490DDF83C90CDF814B019E00598ABEBE7
:103FF000000603E0002049F8040B761E002EF9D1DC
:104000004FF07E5049F8040B0598461E03E000204F
:1040100049F8040B761E002EF9D10598401E059034
:1040200005980028E2D1039500271AE107FB05F067
:10403000109901EB800407FB05F00F9901EB800953
:104040002068079000200990BA461FE000212068F0
:10405000FCF73EFB08D220680999FCF739FB01D236
:1040600020680EE009980CE0206880F00040009085
:104070000999FCF72DFB03D2206880F0004000E096
:104080000998099004EB85040AF1010ADA45DDD3A9
:1040900000210998FCF712FB04D16FF0040013B063
:1040A000BDE8F08F109C0120029000210798FCF7DA
:1040B0000FFB01D2079802E0079880F000400090C3
:1040C0000999FCF7FBFA49D0781CABEB000A41E0F8
:1040D00005FB07F004EB80080298684309EB8000B9
:1040E0000E900021D8F80000FCF7F2FA02D2D8F8BE
:1040F000000003E0D8F8000080F00040009009992B
:10410000FCF7DCFA21D1EE1B08E0D8F8000008909B
:10411000206848F8040B089801C4761E002EF4D1DC
:104120002E460DE00E9800680890D9F800100E9801
:1041300001600E98001D0E90089849F8040B761E39
:10414000002EEFD10120049007E00298401C02905D
:10415000AAF1010ABAF1000FBAD100BF04980128F0
:1041600007D000210798FCF7A9FA02D16FF00400EC
:1041700095E707FB05F0109901EB80000D9007FB18
:1041800005F00F9901EB80000B900D9CDDF82C8061
:104190000D9800680790EE1B07E020680690DDE9A7
:1041A0000601FCF75BF801C4761E002EF5D12E4601
:1041B00009E0D8F800000690DDE90601FCF74EF8AA
:1041C00048F8040B761E002EF3D1109CDDF83C80DD
:1041D000B246CDF808B03AE0BA4505D1E81B04EB89
:1041E000800408EB85082BE0206807900D980C9060
:1041F0000B980A90EE1B0DE0206806900C9802C800
:104200000C900798FBF7F8FF00900699FBF7F1FF79
:1042100001C4761E002EEFD12E460FE0D8F8000024
:1042200006900A9802C80A900798FBF7E5FF0090ED
:104230000699FBF7DEFF48F8040B761E002EEDD141
:1042400004EB87040298401E02900AF1010A0298CA
:104250000028C1D11098001D10900398401E0390B3
:104260007F1C039800287FF4E1AE01900498012898
:1042700020D000210798FCF721FA1BD11198406843
:1042800010904FF0000A09E0109951F82A0000211F
:10429000FCF714FA00D005E00AF1010A0BFB05F067
:1042A0005045F1D800BF0BFB05F0504502D16FF02F
:1042B000040001900198F2E62DE9F74F8EB0074611
:1042C00088467D68D8F80440D7F804B01098406854
:1042D0000D9038880A90B8F80260B7F802A0002064
:1042E00004900A98029000BF04990D9800EB810099
:1042F0000C900596D8F804400020039000BF0020E1
:104300000B905D464FEAAA0940E02068079004EB55
:104310008604286809906868089007990998FBF74F
:104320006BFF00900B99FBF70FFF0B902068069036
:1043300004EB860406990898FBF75EFF00900B9942
:10434000FBF702FF0B902068079004EB8604A86837
:104350000990E868089007990998FBF74DFF0090CD
:104360000B99FBF7F1FE0B902068069004EB860496
:1043700006990898FBF740FF00900B99FBF7E4FEC5
:104380000B901035A9F101001FFA80F9B9F1000F67
:10439000BBD10AF003090EE001CD2168FBF72CFF29
:1043A00000900B99FBF7D0FE0B9004EB8604A9F16B
:1043B00001001FFA80F9B9F1000FEDD1DDE90B0121
:1043C00008600C98001D0C900398401C80B203906C
:1043D000D8F80410039801EB80040598401E80B2C1
:1043E0000590059800288AD10498304480B2049042
:1043F0000BEB8A0B0298401E80B2029002980028B4
:104400007FF472AF0190019811B0BDE8F08F000009
:104410002DE9F04D8D4F21F0004A86B005460C463F
:10442000BA452ADBAAEB070028430AD08848824510
:1044300001DC1AD1CDB106B02846BDE8F04DFFF73A
:1044400091BD844A844B2846FBF7EDFF07460E4694
:10445000824A834B28462146FBF7E5FF06B03A46E1
:104460003346BDE8F04DFBF737BF0120FFF79EFD57
:1044700006B0BDE8F04DFFF77ABD7A48824542DAD2
:10448000BAF1795F0BDA2846FFF703FD042808BF6D
:10449000FFF774FD284606B02146BDE8F08D2A4698
:1044A0000B461046FBF7BFFF834602466E480E469A
:1044B0000B4606217844FFF700FD5A463346FBF7CA
:1044C000B2FF804669488A465A46334604217844FA
:1044D000FFF7F3FC5A463346FBF7A5FF00223B46A5
:1044E000FBF7FAFE02460B4640465146FCF70DF834
:1044F0002A462346FBF797FF06B02A462346BDE827
:10450000F04DFBF7E9BE284624F0004100223D466D
:104510003B46FBF785FF4FF0FF32FCF798F9064664
:10452000024653480F460B4606217844FFF7C5FC68
:1045300032463B46FBF777FFCDE900014D48324656
:104540003B4604217844FFF7B8FC32463B46FBF774
:104550006AFF00222B46FBF7BFFE834602913046DE
:10456000394600F0D7FB804643480D46504517DCDE
:10457000DDE900015A46029BFBF7C7FF42462B4686
:10458000FBF751FF42462B46FBF7A6FE0122FCF744
:104590005EF9304A304BFBF740FF304A304B4CE07D
:1045A0004FF0000A52460B464046FBF795FECDE918
:1045B000031052462B4610461946FBF734FF32468D
:1045C0003B46FBF72DFFDDE90332FBF79EFF064676
:1045D0000F46DDE900015A46029BFBF796FF834632
:1045E0000091012230463946FCF731F9194A1A4B3D
:1045F000FBF716FF06460F46012240462946FCF708
:1046000026F95A46009BFBF70EFF32463B46FBF766
:1046100004FF06460F46012250462946FCF717F9CB
:104620000E4DDFF858802A464346FBF7F9FE324626
:104630003B46FBF7F5FE2A464346FBF7F1FE002C0E
:10464000D8BF81F0004106B0BDE8F08D0000F03F1A
:104650000000F07F075C143326A6913C182D4454CB
:10466000FB21F93F0000E03F080A00001E0A00009D
:1046700092090000A80900003333EF3FFB21E93F16
:104680002DE9F84F04460D4621F000400091734992
:10469000814211DC7249884201DC06D12CB12046EE
:1046A0002946BDE8F84FFFF75DBC6E48002DCCBF32
:1046B0006D496E49BDE8F88F6D49814211DD6D4944
:1046C0008142D8BF4FF0FF366DDD20462946FFF707
:1046D000E0FB042808BFFFF751FC20462946BDE84F
:1046E000F88F6549654F25F00045814233DD644907
:1046F000814219DD002632464FF08043204629468C
:10470000FBF7EAFD80468A46012220462946FCF74F
:104710009EF800223B46FBF780FE42465346FBF7DD
:10472000F4FE04460D463EE001260022BA463B4612
:1047300020462946FBF7D0FD80460F46002253460F
:1047400020462946FBF769FE42463B46FBF7DDFE65
:1047500004460D4627E04B4981421BDDDFF828A1C6
:1047600002260022534620462946FBF75CFE002223
:104770003B46FBF7B1FD80460F46002253462046DC
:104780002946FBF74AFE42463B46FBF7BEFE04467F
:104790000D4608E0032622462B4600203B49FBF746
:1047A000B4FE04460D4622462B4610461946FBF73A
:1047B0003AFE8B46824602460B46FBF734FE07461E
:1047C0000246334888460B4606217844FFF775FBBE
:1047D00052465B46FBF727FE82462E488B463A46FA
:1047E000434605217844FFF768FB3A464346FBF70A
:1047F0001AFE02460B46002E504659460CDAFBF7CD
:104800006BFD22462B46FBF70EFE01B022462B46DF
:10481000BDE8F04FFBF704BEFBF75EFD22462B46DA
:10482000FBF701FE1C4A7A4402EBC603D3E90023DE
:10483000FBF7F3FD22462B46FBF7EFFD174A7A44C0
:1048400002EBC603D3E90023FBF7EAFD009A002A36
:10485000B8BF81F00041BDE8F88F000000001044AF
:104860000000F07F182D4454FB21F93FFB21F9BFD4
:104870000000DC3F0000203E0000F33F0000F03F5E
:104880000000E63F008003400000F83F0000F0BF5A
:10489000AA0700006807000006070000CE06000017
:1048A0002DE9F04D9446CCF1000423F000464CEA8B
:1048B0000404524F46EAD4749A46884621F00042D6
:1048C000BC4206D8454240EA050442EAD474BC42E0
:1048D00004D9BDE8F04D6246FFF747BBAAF1405549
:1048E000A5F17F6555EA0C040BD0022404EAAA74F2
:1048F000434DDFF810E144EAD87452EA000B04D0CB
:104900000CE0BDE8F04DFFF7BBBE002C14BF012C3E
:10491000BDE8F08D022C30D0032C32D056EA0C0BBF
:104920000AD0BE4220D1BA4209D126F0804622F0F8
:1049300080423346114617E000291ADB25E0DFF8F4
:10494000C8B0FB44002C04BFDBE90001BDE8F08DDA
:10495000012C02BFDBE9000181F00041BDE8F08DD0
:10496000022C0AD0032C0CD0BA4212D1B8F1000F9D
:104970000BDA23482549BDE8F08D28462449BDE8D7
:10498000F08D28467146BDE8F08D1D482149BDE8EF
:10499000F08D921B12153C2AC4BF19481D490EDC2C
:1049A000BAF1000FBEBF12F13C0F0020014606DB3A
:1049B0006246FBF7AAFD21F00041FFF761FE002CE3
:1049C00008BFBDE8F08D012C04BF81F00041BDE8B7
:1049D000F08D114A114B022C07D0FBF71EFD2A4621
:1049E000BDE8F04D0A4BFBF718BDFBF716FD2A4654
:1049F000BDE8F04D064BFBF713BD00000000F07F53
:104A0000182D4454FB2109C062060000FB21F9BFA8
:104A1000FB210940FB21F93F075C143326A6A13C8A
:104A200000B585B06846FEF7FDFF04490098B0FB6D
:104A3000F1F00349086005B000BD000040420F00DE
:104A4000600100202DE9FE4F824688460021504635
:104A5000FBF734FE04D000214046FBF72FFE01D1C6
:104A6000002498E0504600F00DF90190404600F017
:104A700009F90290DDE90101FBF720FE05D2DDE92D
:104A80000101FBF7EBFB074604E0DDE90110FBF752
:104A9000E5FB074641493846FBF710FE01D23D468B
:104AA0002BE04FF087413846FBF7A6FB83464FF0DB
:104AB0007C51FBF79BFB81464846FBF7A3FD06466E
:104AC0003046FBF791FD83464946FBF792FB814652
:104AD000334850F82650024652F826100346721CFE
:104AE00053F82200FBF782FB49460090FBF784FB5A
:104AF00083462946FBF728FB0546DDE90110FBF755
:104B0000E7FD20D200214046FBF7E2FD09D8002155
:104B10005046FBF7DDFD01D82C463CE085F0004413
:104B200039E0204C00215046FBF7D2FD05D829463C
:104B30002046FBF75BFB04462DE021462846FBF7A9
:104B400055FB044627E000215046FBF7C1FD11D874
:104B5000154C00214046FBF7BBFD05D829462046F1
:104B6000FBF744FB044616E029462046FBF7ECFA27
:104B7000044610E00D4C00214046FBF7A9FD05D886
:104B800029462046FBF7E0FA044604E02946204681
:104B9000FBF72CFB04462046BDE8FE8F8180803B5E
:104BA0006C010020DB0F4940DB0FC93FDB0FC9BFA1
:104BB0002DE9F04704464FF07C512046FBF71CFBE3
:104BC000814625462E460C48A0EB6606354629460A
:104BD0004846FBF711FB82462946FBF70DFB804652
:104BE0004FF07F51FBF705FB07462946FBF704FB17
:104BF00005462846BDE8F087DF59375F00F0B0F87A
:104C000001E000F001F8FCE710B51D48007801282C
:104C100034DB1B48B0F90600022804DB00201849E9
:104C2000C880FDF775F91648B0F90800062804DBBE
:104C3000002013490881FDF7D1F91148B0F90A00A5
:104C40000A2804DB00200E494881FDF75CF90C4876
:104C5000B0F90C00142804DB002009498881FDF715
:104C600056F90748B0F90E00322804DB0020044949
:104C7000C881FDF799F900200149087010BD0000B6
:104C8000D805002010B5044600212046FBF720FD82
:104C900001D8204610BD84F00040FBE72DE9F05F0D
:104CA00004464FF07F594FF07C512046FBF7A4FAA1
:104CB000824625462E461648A0EB6606354629460E
:104CC0005046FBF799FA83462946FBF795FA80464A
:104CD0004946FBF78EFA07462946FBF78DFA05464B
:104CE00029465046FBF788FA83462946FBF784FAA3
:104CF00080464946FBF77DFA07462946FBF77CFAD2
:104D0000054629462046FBF777FABDE8F09F0000EC
:104D1000DF59375F2DE9F04106460F46FBF7AEFD40
:104D2000041E0D4618BF0120284320F00040C0F1AA
:104D30007F6000F1E040C00F0ED0301C18BF012092
:104D4000384320F00040C0F17F6000F1E040C00F28
:104D500004BF0120FFF72AF920462946BDE8F0816B
:104D600070B54FF44070FEF743FDFFF759FE23483E
:104D700000684FF47A72B0FBF2F1481EB0F1807F08
:104D800000D31BE0481E4FF0E022506150170F2265
:104D9000002804DB13071C0E194B1C5406E01307F4
:104DA0001D0E184B00F00F04241F1D5500BF0020DE
:104DB0004FF0E02290610720106100BFFEF732FD46
:104DC00011480078FEF772F9FDF750FA4FF4E13020
:104DD000FCF7F4FC0D48FCF731FC6420FDF77AF891
:104DE00014210846FDF72AFDFEF758FDC820FDF7FF
:104DF00071F8FDF705F8FEF7F5F870BDAC05002079
:104E000000E400E018ED00E05001002020A10700C0
:104E10002548B0F9000040F2E731884206DA22481E
:104E20000088401C00B2204908803CE000201E4958
:104E300008801E48B0F900003B2813DA1B480088A0
:104E4000401C00B2194908801948008838BB19482D
:104E5000008820BB08460088052824D10120164977
:104E6000087020E00020114908801248B0F90000C5
:104E70003B2806DA0F480088401C00B20D49088024
:104E800011E000200B4908800948B0F900001728FC
:104E900006DA07480088401C00B20549088002E095
:104EA0000020034908807047760500207405002023
:104EB0007005002072050020650000200000000041
:104EC000555555555555C53F7D6FEB0312D6D4BF8B
:104ED0005544880E55C1C93F3B8F68B52882A4BF91
:104EE00088B20175E0EF493F09F7FD0DE13D023F52
:104EF0004B2D8A1C273A03C0C88A599CE52A0040DA
:104F000059018D1B6C06E6BF82922EB1C5B8B33F26
:104F10004FBB610567ACDD3F182D4454FB21E93FD1
:104F20009BF681D20B73EF3F182D4454FB21F93FC0
:104F3000E2652F227F2B7A3C075C143326A6813C46
:104F4000BDCBF07A8807703C075C143326A6913CF1
:104F5000C4EB98999999C9BF711623FEC671BCBF5D
:104F60006D9A74AFF2B0B3BF9AFDDE522DDEADBFC5
:104F70002F6C6A2C44B4A2BF0D5555555555D53FDD
:104F8000FF8300922449C23F6E204CC5CD45B73FF8
:104F9000513DD0A0660DB13FEB0D76244B7BA93F70
:104FA00011DA22E33AAD903F00000000000000005B
:104FB000D04F000800000020D80500006409000858
:104FC0002C540008D8050020400A00009C3F00082F
:104FD000011505290A320A0F0B4C803F28011A0DD2
:104FE0002ABD378635100D18CDCCCC3D80092C104C
:104FF0000D226F12033B241228031CF40117568064
:10500000803BD37F10183C77BE403CCF7D803C5B1B
:105010009BA03CA6B7C03C6ED2E03CB77500FF0039
:105020003D3581103D918B203DAB94303D609C40DF
:105030003D92A2503D25A7603DF1A9703D6F55807E
:105040003DE354883D4753903D8C50983D9F4CA084
:105050003D7247A83DF740B03D1B39B83DD22FC047
:105060003D0C25C83DB218D03DC60AD83D2DFBDF0A
:105070003DD9E9E73DB0D6EF3DBEC1F73DDBAAFF24
:105080003D04C9033E95BB073E20AD0B3E979D0FE7
:105090003EF58C133E397B173E56681B3E3E541F2F
:1050A0003EF83E233E7728273EB4102B3EA1F72E34
:1050B0003E45DD323E93C1363E7DA43A3E0A863EF1
:1050C0003E2766423ED844463E12224A3EC7FD4D28
:1050D0003EFED7513EAFB0553EC687593E4B5D5D53
:1050E0003E3731613E7C03653E1AD4683E0AA36CAC
:1050F0003E4770703EC83B743E8805783E86CD7B47
:105100003EB5937F3E0EAC813E538D833EAE6D85A2
:105110003E164D873E8D2B893E0F098B3E9900FF31
:1051200000E58C3E2BC18E3EC19B903E5475923E55
:10513000E94D943E7B25963E07FC973E8BD1993EE8
:1051400002A69B3E6F799D3ECD4B9F3E1C1DA13E0E
:1051500057EDA23E7FBCA43E8D8AA63E8457A83E52
:105160006223AA3E23EEAB3EC2B7AD3E4580AF3EC2
:10517000A447B13EE20DB33EF9D2B43EE996B63E45
:10518000B159B83E4F1BBA3EC2DBBB3E079BBD3E8A
:105190001E59BF3E0416C13EBCD1C23E3F8CC43E28
:1051A0008E45C63EA4FDC73E89B4C93E336ACB3E98
:1051B000A41ECD3EDAD1CE3ED583D03E9434D23E2D
:1051C00018E4D33E5A92D53E603FD73E21EBD83EFD
:1051D000A395DA3EE33EDC3EE1E6DD3E9A8DDF3E1E
:1051E0000D33E13E3AD7E23E227AE43EC51BE63E6D
:1051F0001BBCE73E2F5BE93EF7F8EA3E7695EC3EB6
:10520000A930EE3E93CAEF3E3563F13E86FAF23E98
:105210008F90F43E4925F63EB9B8F73EDA4AF910C8
:10522000143EAFDBFA3E386BFC3E71F9FD3E5A8608
:10523000FF3EFC8800FF003F234E013FA212023FC9
:105240007BD6023FAC99033F365C043F171E053FF7
:1052500051DF053FE39F063FCE5F073F121F083F28
:10526000ADDD083FA29B093FEF580A3F94150B3F65
:1052700093D10B3FE98C0C3F9A470D3FA2010E3FA3
:1052800003BB0E3FBF730F3FD32B103F41E3103FD3
:10529000089A113F2A50123FA405133F79BA133FD1
:1052A000A86E143F3322153F18D5153F5787163F78
:1052B000F138173FE7E9173F389A183FE749193F98
:1052C000EFF8193F55A71A3F18551B3F37021C3FEF
:1052D000B3AE1C3F8E5A1D3FC4051E3F5AB01E3F41
:1052E0004E5A1F3FA103203F52AC203F6354213F41
:1052F000D3FB213FA4A2223FD548233F67EE233FA3
:105300005A93243FAD37253F63DB253F7A7E263F06
:10531000F420273FD2C2273F1364283FB704293F18
:10532000BFA4293F2C442A3FFEE22A3F33812B3F72
:10533000D11E2C3FD238CFBB2C3F3C582D3F0CF414
:105340002D3F438F2E3FE1292F3FE9C32F3F595D6A
:10535000303F33F6303F758E313F2126323F39BD25
:10536000323FBB53333FA9E9333F027F343FC7137A
:10537000353FF9A7353F993B363FA6CE363F2161F1
:10538000373F0BF3373F6484383F2E15393F65A50F
:10539000393F0F353A3F2AC43A3FB4523B3FB3E05E
:1053A0003B3F226E3C3F06FB3C3F5D873D3F261363
:1053B0003E3F679E3E3F1A293F3F44B33F3FE43C98
:1053C000403FF9C5403F864E413F89D6413F065E8A
:1053D000423FFAE4423F676B433F4FF1433FB076B1
:1053E000443F8CFB443FE27F453FB403463F018787
:1053F000463FCB09473F138C473FD70D483F198F96
:10540000483FDD0F490401129BC8C2048A4204715F
:10541000760A0A28323284A24A0468090102030487
:0C542000060708090C6910450204060884
:04000005080000ED02
:00000001FF
